:020000040800F2
:100000000002001041F4000811190108BD17010891
:10001000F9170108351801087118010800000000DF
:10002000000000000000000000000000212F010877
:10003000FD190108000000006D1A0108E52E0108F5
:10004000E1F30008E1F30008E1F30008E1F3000840
:10005000E1F30008E1F30008E1F30008E1F3000830
:10006000E1F30008E1F30008E1F30008E1F3000820
:1000700035270108E1F30008F9260108E1F300083B
:10008000E1F30008E1F30008E1F30008E1F3000800
:10009000E1F30008E1F30008E1F30008E1F30008F0
:1000A000E1F30008E1F30008E1F30008E1F30008E0
:1000B000E1F30008E1F30008E1F30008E1F30008D0
:1000C000E1F30008E1F30008E1F30008E1F30008C0
:1000D000E1F300084526010881260108BD26010834
:1000E000E1F30008E1F30008E1F30008E1F30008A0
:1000F000E1F30008E1F30008E1F30008E1F3000890
:10010000E1F30008A5320108E1F30008E1F300087B
:10011000E1F30008E1F30008E1F30008E1F300086F
:10012000E1F30008E1F30008E1F300086932010897
:10013000E1F30008E1F30008E1F30008E1F300084F
:10014000E1F30008E1F30008E1F30008E1F300083F
:10015000E1F30008E1F30008E1F30008E1F300082F
:10016000E1F30008E1F30008E1F30008E1F300081F
:10017000E1F30008E1F30008E1F30008E1F300080F
:10018000E1F30008E1F3000808B5062002F018F8D2
:10019000012010F0DDFE00BF00B587B014460493C7
:1001A00005900E4610F0F6FEDDE90423C06844B168
:1001B00005490096CDE90114044900F001FBFFF761
:1001C000E3FF03490C46F4E778F6020888F60208D4
:1001D0001CDD020808B513460022FFF7DDFF00BF53
:1001E00010B40C4613460146224602205DF8044B2B
:1001F00010F0ACBEF0B50C4683B000295AD00546CD
:1002000010B18369002B59D001A9012014F0B6FB6D
:10021000A36FDE073BD5B4F90C30002B46D004F1B8
:1002200060072146284600F069F8236B064633B183
:10023000216A284698470028B8BF4FF0FF36A389A7
:100240001A0646D4616B41B104F14403994202D0CD
:10025000284600F015FC00236363A16C21B12846F9
:1002600000F00EFC0023A36400F064FAA36F0022E8
:10027000DB07A28132D5384614F0E8FA00F060FAC4
:10028000019801A914F07AFB304603B0F0BDA389B0
:10029000980504F16007C4D4384614F0DDFAB4F9C7
:1002A0000C30002BBDD1A36FD9070AD5019801A945
:1002B00014F064FB0026304603B0F0BD00F09CF95A
:1002C000A2E7384614F008FB019801A914F056FB88
:1002D000F0E72169284600F0D3FBB3E7384614F075
:1002E000FBFAC8E700B583B0019010F053FE019906
:1002F00003B05DF804EBFFF77DBF00BFB1F90C2040
:100300002DE9F0410D461107804648D46B6842F450
:100310000062002BAA815EDDEC6A002C58D000231D
:10032000D8F80060296AC8F8003093B212F48052FD
:1003300055D101234046A047431C69D0AB89EC6AE4
:10034000296A5F0705D56A686B6B801A0BB12B6C45
:10035000C01A024600234046A047441C49D1D8F8A1
:100360000020B5F90C30002A5FD01D2A01D0162AD2
:1003700067D12A690021C5E9002123F40063AB811C
:10038000696BC8F8006019B305F14403994202D0C3
:10039000404600F075FB00206863BDE8F0812F69DE
:1003A000B7B193B22E682F6099070CBF6B69002319
:1003B000F61BAB600AE0AC6A296A33463A4640460F
:1003C000A047041EA6EB040627440ADD002EF2DC3B
:1003D0000020BDE8F0812B6C002B9DDCF8E7A86DB8
:1003E000AFE7AB8943F04003AB814FF0FF30BDE88E
:1003F000F081B5F90C302A692A6023F400630022E9
:100400006A60DA04AB81BBD5C117C5E91601B7E74D
:10041000D8F80030002B91D01D2B0FD0162B0DD00B
:10042000AB8943F04003AB81D3E723F40063296930
:10043000AB81DB04C5E90012A2D5E5E7C8F800608E
:10044000C6E743F04003AB81C3E700BF30B50B699B
:1004500083B03BB10C46054608B1836913B3B4F9C8
:100460000C301BB90025284603B030BD01A901207E
:1004700014F084FAA36FD80702D4A389990518D57C
:1004800028462146FFF73AFFA36FDA07054602D454
:10049000A3899B0512D5019801A914F06FFA28468B
:1004A00003B030BD00F0A8F8B4F90C30002BD9D05F
:1004B000DCE704F1600014F0CFF9E1E704F160003B
:1004C00014F00AFAE7E700BF40B110B5044610F097
:1004D00061FD2146BDE81040FFF7B8BF024B03495C
:1004E000186800F05FBE00BFC8D402084D040008C1
:1004F00038B5002504468181C281C0E90055C0E9B4
:10050000045585608567856129460822703001F0B1
:1005100017FD07480749084A084B2462C4E91855E3
:10052000C4E91A55C4E90901C4E90B2338BD00BF69
:10053000092500083925000881250008C125000883
:100540000D4B4168994210B5044601D0FFF752FEA9
:10055000A1680A4B994202D02046FFF74BFEE168A2
:10056000074B994202D02046FFF744FE204605493A
:10057000BDE8104000F016BEB8110010381200108F
:10058000B8120010F501000808B5836FDA0702D42D
:1005900083899B0501D5002008BD603014F05CF90B
:1005A000002008BD08B5836FDA0702D483899B0554
:1005B00001D5002008BD603014F08EF9002008BD80
:1005C00070B54D1EED010E4605F1900101F016F8D3
:1005D000044640B100211030666005F180022160C0
:1005E000A06001F0ADFC204670BD00BF014B186853
:1005F000FFF7A6BFC8D4020870B50446194814F026
:100600002BF9A369BBB9184918480968184A22622E
:10061000A142026A6364C4E90F3300F1800608BF97
:10062000012300F5807508BF8B61C4E90265606035
:1006300032B10123A361BDE870400A4814F04CB9FF
:100640000323C1E910300421FFF752FF3046012295
:100650000821FFF74DFF284602221221FFF748FF2D
:10066000E7E700BF4C080010C8D40208B81100101A
:1006700041050008F0B583B001A90746012014F038
:100680007DF9294814F0E8F8284B1E68B369002B5F
:1006900033D03C36D6E90134013B04D529E05A1C5D
:1006A00004F1800425D0B4F90C50013B002DF6D1A3
:1006B0001F4BE360C4E91855C4E91A551A48A567E9
:1006C00014F00AF901A9019814F058F9C4E9015588
:1006D000C4E904552560A5610822294604F170008B
:1006E00001F02EFCC4E90D55C4E91255204603B0B3
:1006F000F0BD34682CB12646CCE73046FFF77CFFCE
:10070000C7E704213846FFF75BFF04463060002846
:10071000F1D1054814F0E0F8019801A914F02EF980
:100720000C233B60E2E700BF5C080010C8D402085D
:100730000100FFFF014814F08FB800BF5C080010F3
:10074000014814F0C9B800BF5C080010014814F05B
:1007500083B800BF4C080010014814F0BDB800BFBA
:100760004C08001008B5054814F076F810F012FC9B
:10077000BDE80840024900F0F5BC00BF5C0800106D
:100780008905000808B510F005FC044900F0EAFCF2
:10079000BDE80840024814F09FB800BFA505000856
:1007A0005C0800100CB400B583B004AB53F8042B04
:1007B000019305F077FD03B05DF804EB02B07047DC
:1007C0000EB400B584B005AB009053F8042B019231
:1007D000039310F0DFFBDDE90012039B05F062FDDF
:1007E00004B05DF804EB03B0704700BF2DE9F04F93
:1007F00085B002FB03F8CDE900320E9CB8F1000F82
:1008000056D00D46064618B18369002B00F0BE8015
:1008100003A9012014F0B2F8A36F13F0010FB4F98B
:100820000C3098B202D1990540F1B380820407D40C
:10083000A26F43F4005322F40052A38198B2A2673E
:100840006768002F38DB83072168BA463BD4C2466D
:1008500010E001F02DFA23683B4423602146304626
:1008600001F04AFD3D44AAEB070300287AD1D4E900
:1008700000179A46BA453A462846EAD8524601F049
:1008800017FAD4E90032A2EB0A025344C4E9003259
:10089000A36FDA0706D4A3899B0503D404F1600093
:1008A00014F01AF8039803A914F068F8DDF8008032
:1008B000404605B0BDE8F08F00239A4663601F46AE
:1008C00083072168C3D5C24528BFC2465246284681
:1008D00001F0EEF9D4E90023616B5244A3EB0A0363
:1008E000C4E90023A8EB0A0751B1002FD0D004F1CE
:1008F0004403994202D0304600F0C2F800236363FB
:100900005544B14600E01F4621464846002FBFD05F
:10091000D4F810B02668D4F814A02561256067616A
:1009200001F0EAFC6268266000236360C4E904BA4F
:100930001544BB1A0028E6D0A36FDE0702D4A389B2
:100940009D0536D50398009203A914F017F8009A74
:10095000019B9044A8EB0707B7FBF3F8404605B0AE
:10096000BDE8F08FA36FD80702D4A38999051BD5E2
:10097000039803A914F002F8B844019BA8EB0A08F5
:10098000B8FBF3F8404605B0BDE8F08FFFF734FE42
:100990003EE704F1600013F05FFFB4F90C3098B249
:1009A00082043FF54DAF43E704F1600013F094FF7C
:1009B000DEE704F16000009213F08EFF009AC1E7B9
:1009C000F0B583B00D4616461F46044610F0E2FA15
:1009D000009733462A462146FFF708FF03B0F0BDD3
:1009E000F8B5244F0C46064610F0D0FABB685D6897
:1009F000C4F57B71033125F003054B1923F47F7394
:100A000023F00303A3F58064B4F5806F07DB0021B6
:100A1000304610F0A1FABB682B44984204D030460F
:100A200010F0B6FA0020F8BD6142304610F094FA9A
:100A300001300DD0104AB96813682D1B45F001052F
:100A400030461B1B4D60136010F0A2FA0120F8BD68
:100A50000021304610F080FABA68831A0F2BDEDDD1
:100A6000064C0549246843F00103001B53600860ED
:100A7000D5E700BF78020010700800108006001053
:100A8000002963D0F8B50C46064610F07FFA54F8FA
:100A9000045C7D4925F00100A4F1080C0CEB000377
:100AA0008F685A689F4222F0030200F08E80ED07A3
:100AB0005A6003EB020736D454F808EC7C68ACEBC0
:100AC0000E0C01F10807DCF80850BD42704404F038
:100AD000010468D0DCF80CE0C5F80CE0CEF8085052
:100AE000002C00F0998040F00102CCF8042018603E
:100AF000B0F5007F33D2C3084C68013342090120AE
:100B00009040204301EBC30251F833404860083A5B
:100B1000CCE9024241F833C0C4F80CC03046BDE80D
:100B2000F84010F035BA7D68ED0710D4104401F19B
:100B300008079A68BA4240F0010475D0DB68D360B8
:100B40009A60CCF804404CF80000D1E7704740F0C0
:100B50000102B0F5007F44F8042C1860CBD3B0F547
:100B6000206F4FEA50234CD2830903F13905ED0081
:100B700003F138024B594C19083C9C425DD05A682D
:100B800022F00302824202D99B689C42F7D1DC68C2
:100B9000CCE902343046C4F808C0C3F80CC0BDE844
:100BA000F84010F0F5B9002C68D1D3E902310244C5
:100BB00042F00100D9608B60CCF8040030464CF85C
:100BC0000220BDE8F84010F0E3B9EF07024408D472
:100BD00054F8083CACEB030C1A44DCE90203C36094
:100BE00098602A4B1B6842F001009342CCF8040045
:100BF000C1F808C092D8264B30461968FFF7F0FEBE
:100C00008CE7142B0AD9542B1FD8030B03F16F0563
:100C1000ED0003F16E02ADE710448AE703F15C05D5
:100C2000ED0003F15B02A5E7C1E904CCCCE9027752
:100C3000CCF804404CF8000070E748689210012599
:100C400005FA02F202434A60A2E7B3F5AA7F06D88A
:100C5000C30B03F17805ED0003F177028AE740F258
:100C60005452934206D8830C03F17D05ED0003F145
:100C70007C027FE74FF47E757E227BE740F0010225
:100C8000CCF80420186049E77802001084060010B0
:100C90006C08001000B583B00093D31700F014F86F
:100CA00003B05DF804FB00BF30B585B00C461546B7
:100CB000039010F06FF9039900952246E31700F0B6
:100CC00003F805B030BD00BF2DE9F04F9DB0904650
:100CD000269F0C46054608B183695BB303A9012032
:100CE00013F04CFEA36F13F0010FA38902D19E05F0
:100CF00040F1D98003F48473B3F5847F00F08B80D6
:100D0000D4F82CA0BAF1000F00F08F80012F69D029
:100D100037F002061CD0A36F1622D8072A600FD521
:100D2000039803A913F02AFE4FF0FF3630461DB09A
:100D3000BDE8F08FFFF760FCD0E7A36FD807EFD4D2
:100D4000A3899905ECD404F1600013F0C5FDE7E731
:100D500022693346002A00F0BF80B4F90C2040F627
:100D60001A010A4290B208D141057ED4A8490193E4
:100D70008A4561D042F40062A28121462846FFF7ED
:100D800065FB06460028D8D1216A3B4642462846E4
:100D9000D0470130D1D0616B41B104F14403994295
:100DA00002D02846FFF76CFE00236363A389226903
:100DB000226023F402630021A3816160082204F110
:100DC000700001F0BDF8A36FDA0703D4A3899B0577
:100DD00040F1F380039803A913F0D0FD30461DB015
:100DE000BDE8F08F21462846FFF730FBA38913F4B6
:100DF00080525ED05907A66D226965D5D4F804C02B
:100E0000636BA6EB0C060BB1206C361A18EB0608C8
:100E1000012300279EE721462846FFF717FBD4F859
:100E20002CA0BAF1000F7FF471AFA36F1D222A60CE
:100E3000DD073FF575AF83E7B4F90E10002999DBA4
:100E400004AA284610F024FA019B002840F0DD8017
:100E50000699B4F90C2001F47041B1F5004F89D125
:100E60001799216542F48062A281002F40F094809E
:100E7000C346002B37D1A289D20400F19C801A46C8
:100E8000216A01232846D047431C3FF476AFD4F8AB
:100E900004C0616BA0EB0C066346002900F098804B
:100EA000206C361A25E004F1600013F0D5FCA3890C
:100EB00020E7216A3B462846D0470646701C82D070
:100EC000A3892269590799D41F079FD52368002B4E
:100ED0009CD09B1A1E4499E721462846019300F0B6
:100EE000E5FA019B39E7616B002970D0D4F804C0A2
:100EF000206CE36B226966449B1AF61A0344B345DF
:100F000002DBF01858456AD8226D216A524202EA83
:100F10000B06324600232846D04701303FF42DAF60
:100F20002369616B23600023636041B104F14403D2
:100F3000994202D02846FFF7A3FD00236363A389EB
:100F4000BBEB060B23F02003A38110D021462846DB
:100F500001F0D2F900287FF410AF63685B45FFF41D
:100F60000CAF2668A3EB0B035E44C4E900630822C0
:100F7000002104F1700000F0E3FFA36FDE0702D44C
:100F8000A3899D051ED5039803A913F0F7FC00263D
:100F900030461DB0BDE8F08FB4F90E10019304AADD
:100FA000284610F075F900287FF4E7AE0A9A019BF5
:100FB00002EB080B5DE7A06D69E704F1600013F038
:100FC0008BFC07E704F1600013F086FCDBE7636845
:100FD00021682269891A761A0B4400218FE7ABEB4E
:100FE000060B5A44A3EB0B03C4E9002341B104F1FF
:100FF0004403994202D02846FFF742FD0023636371
:10100000A38923F02003A381B1E7B4F90C20B1E652
:101010008125000810B584B0CDE90220069C01931B
:101020000FF0B8FFDDE901320399069404B0BDE882
:101030001040FFF749BE00BF08B500F00DF808BD2D
:1010400000B583B001900FF0A5FF019900F004F8FE
:1010500003B05DF804FB00BF70B50C4682B00546D6
:1010600010B18369002B3DD001A9012013F086FC4B
:10107000A36FDE0702D4A389980543D5E66A002E44
:101080004AD0A38903F00C02082A2ED013F4805210
:101090001CD128460123216AB047431C05464CD089
:1010A000A389580715D56168626B6D1A0AB1226C65
:1010B000AD1AA26FD20701D49B0528D501A90198CA
:1010C00013F05CFC2846E91702B070BD5807A56D07
:1010D000E9D41907EDD52268002AEAD02169521A0D
:1010E0001544E6E7FFF788FABEE72268002ACDD06C
:1010F0002169521A002AC9DDDA05C7D5284602231C
:101100000022C8E704F1600013F0A6FBB6E704F183
:10111000600013F0E1FBD1E7A36F1D22D9072A601D
:1011200002D4A3899D050CD501A9019813F026FCD2
:101130004FF0FF304FF0FF31C6E7A36FDE07F3D467
:10114000EFE704F1600013F0C7FBEDE700B583B0F3
:1011500001900FF01FFF019903B05DF804EBFFF75A
:101160007BBF00BF2DE9F04100F13C078846002617
:10117000D7E90154013D0FD4A389012B05F1FF35B7
:1011800006D9B4F90E30013302D02046C0470643D9
:101190006B1C04F18004EFD13F68002FE8D130468A
:1011A000BDE8F0812DE9F8430746884600F13C068A
:1011B0004FF00009D6E90154013D11D4A389012B58
:1011C00005F1FF3508D9B4F90E30013304D02146BA
:1011D0003846C04749EA00096B1C04F18004EDD190
:1011E0003668002EE6D14846BDE8F8832DE9F04187
:1011F00086B002FB03F790461D4601AA0123CDE904
:101200000117CDE903230C9C0597064610B18369AD
:10121000002B31D06946012013F0B0FBA36F13F00F
:10122000010FB4F90C309AB201D1990538D5920466
:1012300006D4A26F43F4005322F40052A381A267A4
:10124000304603AA214606F0E9F8A36FB8B1DA07E1
:101250000AD50098694613F091FB059D7F1BB7FBEB
:10126000F8F006B0BDE8F081A3899B05F1D404F144
:10127000600013F031FBECE7FFF7BEF9CAE7D807CF
:1012800006D4A389990503D404F1600013F024FB6C
:101290000098694613F072FB284606B0BDE8F0815D
:1012A00004F1600013F0D8FAB4F90C309AB2BEE73A
:1012B000F0B583B00D4616461F4604460FF06AFE91
:1012C000009733462A462146FFF790FF03B0F0BD52
:1012D000416800F009B800BF08B50FF05BFEBDE83B
:1012E0000840416800F000B830B50C4683B00546B0
:1012F00008B18369FBB101A9012013F03FFBA36F83
:10130000D80702D4A389990523D56368013B002B34
:10131000636013DB23685A1C22601D78A36FDA0711
:1013200002D4A3899B050FD5019801A913F026FBD0
:10133000284603B030BDFFF75FF9DCE728462146B9
:1013400001F066F80546E9E704F1600013F0C4FA1D
:10135000EAE704F1600013F07FFAD6E730B583B016
:1013600004460FF017FE054608B18369FBB101A9D9
:10137000012013F003FBA36FD80702D4A3899905BA
:1013800023D56368013B002B636013DB23685A1C81
:1013900022601D78A36FDA0702D4A3899B050FD5BD
:1013A000019801A913F0EAFA284603B030BDFFF70F
:1013B00023F9DCE72846214601F02AF80546E9E74B
:1013C00004F1600013F088FAEAE704F1600013F01A
:1013D00043FAD6E742B110B50B491046144601F066
:1013E00063F918B9094810BD0848704707492046F5
:1013F00001F05AF90028F5D00549204601F054F9CA
:101400000028EFD0002010BDB8F6020898EB0208C3
:101410001CDD02080120704710B582B0044601911E
:101420000FF0B8FD019A214602B0BDE81040FFF769
:10143000D1BF00BF70B50C46B1F90E10002998B0AD
:1014400016461D461BDB6A460FF022FF002816DBFE
:10145000029B139A03F47043A3F50051B1FA81F192
:101460004909002A29601ADDB3F5004F0CBF4FF47B
:1014700080604FF400603260226518B070BDA189B1
:10148000002311F080002B6004D040221846326007
:1014900018B070BD4FF48073336018B070BD4FF456
:1014A00080734FF40060336018B070BD70B58B89E5
:1014B0009D0782B00C4607D501F147030122C1E91F
:1014C00004320B6002B070BD01AB6A460646FFF7FE
:1014D000B1FF00990546304600F090F880B1B4F9AC
:1014E0000C20174B33620199206042F08003009A70
:1014F000A381C4E9040299B92B43A38102B070BD52
:10150000B4F90C309A05DDD423F0030304F147024B
:1015100043F002030121C4E90421A3812260D1E741
:10152000B4F90E1030460FF0FFFE10B9B4F90C30CC
:10153000E2E7A28922F0030242F0010213B2DBE7E4
:101540004105000870B4124C04F5806554F8083F5A
:101550005E6826F003060F2E3146D4BF002001201E
:10156000E368A34208D05A68DB6822F00302A34272
:1015700000F101001144F6D10834A542F0D1054B29
:101580001A685860521AC3E90816DA6170BC7047CD
:101590007802001070080010F8B50B4D064608469A
:1015A0000F460FF0F3FCFFF7CDFF0FCD34460FC40D
:1015B0000FCD0FC495E8030084E8030038460FF010
:1015C000E7FC3046F8BD00BF7008001000B583B0DE
:1015D00001900FF0DFFC019903B05DF804EB00F01F
:1015E0000DB800BF00B583B001900FF0D3FC019996
:1015F00003B05DF804EBFFF743BA00BF2DE9F04FED
:1016000001F10B05162D83B0064623D8102900F2F0
:10161000A7800FF0BBFC102502201823CD4F3B44C0
:10162000A3F108025C68944200F0A780636823F08D
:1016300003032344D4E902515A68E96042F00102ED
:1016400030468D605A600FF0A3FC0834204603B08A
:10165000BDE8F08F35F0070500F18280A9427FD800
:101660000FF094FCB5F5FC7FC0F0AC816B0A7ED026
:10167000042B00F27581AB0903F1390003F1380C3A
:10168000C300B44F3B44A3F108015C68A14206D1FA
:101690000CE0002A80F22A81E468A14206D0636847
:1016A00023F003035A1B0F2AF3DD60463C69DFF881
:1016B000A88244456CD0626822F00302531B0F2BB2
:1016C00000F38E81002BC7E9048880F27F81B2F598
:1016D000007F80F01981D108013152090123934024
:1016E0007A6857F831C0C4F808C007EBC10E13433D
:1016F000AEF10802E2607B6047F83140CCF80C4064
:1017000082104FF0010C0CFA02FC9C4548D81CEAF0
:10171000030F08D120F003004FEA4C0C1CEA030F22
:1017200000F10400F8D007EBC00AD6468146DEF887
:101730000C300BE0596821F003014A1B0F2A1C46AC
:10174000DB6800F31981002A80F22F819E45F1D1D8
:1017500009F1010919F0030F0EF1080EE7D167E155
:101760000C2333600024204603B0BDE8F08F4FF413
:10177000007340204FF03F0C83E7DC68A34208BFB2
:1017800002307FF453AF3C69DFF8CC81444592D1FD
:101790007B6882104FF0010C0CFA02FC9C45B6D914
:1017A000BC68636823F003094D4504D8A9EB050321
:1017B0000F2B00F38B80DFF8A4A1D7F80824DAF808
:1017C000003001322B441BBF03F20F4828F47F780E
:1017D00003F1100828F00308414630460FF0BCFB27
:1017E000411C04EB090B024600F01481834500F212
:1017F0000F81DAF804104144CAF804100B4600F0D7
:101800006581D7F8081401311BBFA2EB0B0B5B44B9
:10181000C7F80824CAF8043012F0070300F02C813E
:10182000C3F108010A449044C3F58161A1EB0801AA
:10183000C1F3090B59463046019200930FF08CFB1F
:10184000421CDDE9003200F06581801A00EB0B08D4
:10185000DAF80400BA6048F001030BEB0001BC4267
:101860005360CAF8041000F03C81B9F10F0F40F248
:101870003A816368A9F10C0020F0070003F001032E
:1018800004EB000C03434FF0050E0F286360CCE916
:1018900001EE00F2468153681446DAF82C208A42A1
:1018A000DAF8302038BFCAF82C108A4238BFCAF89C
:1018B000301023F003084545A8EB050301D80F2B92
:1018C00004DC30460FF064FB00244CE7621943F05F
:1018D000010345F0010565603046BA6053600FF0C2
:1018E00057FB0834204603B0BDE8F08F2344E1687D
:1018F0005A68A56842F00102E96030468D605A607E
:101900000FF046FB08342EE7B2F5206F4FEA522362
:1019100078D3142B00F2C28003F15C01C9005B3361
:1019200007EB010C7958ACF1080C8C4500F09B805A
:101930004B6823F00303934202D989688C45F7D1A1
:10194000D1F80CC07B68C4E9021CCCF80840CC601C
:10195000D6E600BF78020010800200106C0800106C
:10196000142B5AD9542B00F2A1802B0B03F16F00DA
:1019700003F16E0CC30084E6D4F808E004EB050C18
:1019800045F00105656042F00105CEF80C303046A7
:10199000C3F808E0C7E904CCCCE90288CCF80450CD
:1019A00062500FF0F5FA0834DDE6214454F8085F80
:1019B0004A6842F001024A603046EB609D600FF0D9
:1019C000E7FAD0E6E80805F1080327E622443046A6
:1019D000536843F00103536008340FF0D9FAC2E6AC
:1019E000611945F0010C43F00105C4F804C030460C
:1019F000C7E90411C1E902884D60A3500FF0C8FA8D
:101A00000834B0E6930903F13901C900383387E798
:101A1000BC4255D0BC6863684BE703F15C0003F13E
:101A20005B0CC3002DE65AF80839534540F0978007
:101A300010F0030F00F1FF30F5D17B6823EA0C03AF
:101A40007B604FEA4C0C9C453FF6AAAEBCF1000F00
:101A500004D1A5E64FEA4C0C09F104091CEA030F76
:101A6000F8D048465FE69A104FF0010E7B680EFAF8
:101A700002F213437B6066E702EB08014942C1F3BF
:101A8000090B59463046019300920FF065FA431C4A
:101A9000DDE900237FF4D9AE9B46D9E6542B25D847
:101AA000130B03F16F01C9006E3339E7B3F5AA7F59
:101AB00025D8EB0B03F1780003F1770CC300E0E5C8
:101AC000DAF804304344CAF804309AE6CBF309004C
:101AD00000287FF496AEBC68C84448F001036360F8
:101AE000DBE61446D9E601235360EAE6B3F5AA7FA4
:101AF00021D8D30B03F17801C900773310E740F206
:101B00005452934221D8AB0C03F17D0003F17C0CBD
:101B1000C300B6E5083B9844A8EB02084FF0000B61
:101B200096E604F108013046FEF7AAFFBC68DAF831
:101B300004106368B1E640F254518B420BD8930C09
:101B400003F17D01C9007C33EAE64FF47E737F2008
:101B50004FF07E0C95E54FF47E717E23E0E67B68C6
:101B60006FE700BF10B4034CD4F8E440A4465DF81E
:101B7000044B6047CCD4020882B049B15AB16BB172
:101B800013780B601278101E18BF012002B0704746
:101B900001A9002AF3D1104602B070476FF001008E
:101BA000F4E700BF0000000000000000000000009B
:101BB00001F0FF01102A2BDB10F0070F08D010F8FE
:101BC000013B013A8B422DD010F0070F42B3F6D102
:101BD000F0B441EA012141EA014122F007047FF01B
:101BE00000070023F0E80256083C85EA010586EA72
:101BF000010685FA47F5A3FA87F586FA47F6A5FAAE
:101C000087F68EB9EED1F0BC01F0FF0102F00702B9
:101C100032B110F8013B013A83EA010313B1F8D164
:101C20000020704701387047002D06BF3546033845
:101C3000073815F0010F07D1013015F4807F02BF7E
:101C4000013015F4C03F0130F0BC0138704700BFCF
:101C5000032A70B412D940EA0105AD0704460B46C9
:101C60001ED11946204653F8045B54F8046BAE426B
:101C700016D1043A032A20461946F2D8561EA2B1BC
:101C80000139441E01E0C3180CD014F8015F11F8AB
:101C9000012F9542A6EB0403F5D0A81A70BC70473B
:101CA000561EEDE7184670BC70471046F6E700BFB9
:101CB000844641EA000313F003036DD1403A41D357
:101CC00051F8043B40F8043B51F8043B40F8043B16
:101CD00051F8043B40F8043B51F8043B40F8043B06
:101CE00051F8043B40F8043B51F8043B40F8043BF6
:101CF00051F8043B40F8043B51F8043B40F8043BE6
:101D000051F8043B40F8043B51F8043B40F8043BD5
:101D100051F8043B40F8043B51F8043B40F8043BC5
:101D200051F8043B40F8043B51F8043B40F8043BB5
:101D300051F8043B40F8043B51F8043B40F8043BA5
:101D4000403ABDD2303211D351F8043B40F8043B45
:101D500051F8043B40F8043B51F8043B40F8043B85
:101D600051F8043B40F8043B103AEDD20C3205D355
:101D700051F8043B40F8043B043AF9D2043208D04D
:101D8000D2071CBF11F8013B00F8013B01D30B88BF
:101D900003806046704700BF082A13D38B078DD09D
:101DA00010F003038AD0C3F10403D21ADB071CBF6F
:101DB00011F8013B00F8013B80D331F8023B20F8D9
:101DC000023B7BE7043AD9D3013A11F8013B00F812
:101DD000013BF9D20B7803704B7843708B7883709A
:101DE000604670478842F0B40DD98B1883420AD9F7
:101DF000841832B1224613F8014D02F8014D994280
:101E0000F9D1F0BC70470F2A0ED80346541E002AA1
:101E1000F7D001340C44013B11F8012B03F8012FDA
:101E2000A142F9D1F0BC704740EA01039B073FD1C2
:101E3000A2F1100323F00F0401F1200727441B092E
:101E400001F1100400F1100554F8106C45F8106C05
:101E500054F80C6C45F80C6C54F8086C45F8086C98
:101E600054F8046C45F8046C1034BC4205F11005BC
:101E7000EAD1013312F00C0F01EB031102F00F0451
:101E800000EB031317D0043C24F0030CA5089C447A
:101E90001C1F0E4656F8047B44F8047F6445F9D1B4
:101EA0006C1C03EB840301EB840102F00302ADE739
:101EB000541E0346ADE72246A8E700BF70B483185E
:101EC000551E44199807CEB211D06AB1234603E0DB
:101ED00082070DD0013D07D3184613F80129B242FD
:101EE0001C46F5D170BC7047002070BC7047154689
:101EF000032D0CD815B32346651B01E0AB42F3D08C
:101F0000184613F80129B242F8D170BC7047090293
:101F100089B2314341EA0141033C2346043C1A683B
:101F20004A40A2F1013020EA020212F0803F03D1C0
:101F3000043D032D2346F0D8DC1CDBE72846D1E71F
:101F4000F0B4860746D0541E002A3CD0CAB20346DD
:101F500001E0013C37D303F8012B9D07F9D1032C95
:101F60002AD9CDB245EA05250F2C45EA054534D9D5
:101F7000A4F1100222F00F0C03F1200716096744A8
:101F800003F1100242E9045542E902551032BA4207
:101F9000F8D1721C14F00C0F03EB021204F00F06C0
:101FA00013D0331F23F003030433134442F8045BBC
:101FB0009342FBD106F003042CB1CAB21C4403F8CF
:101FC000012B9C42FBD1F0BC704734461346002CD9
:101FD000F3D1F8E714460346C1E71A462646E0E780
:101FE00070B50E4682B01446054608B1836933B316
:101FF00001A9012012F0C2FCA36FD80702D4A38963
:10200000990528D5A368013B002BA36021DAA269BA
:10201000934217DBF0B20A2814D023685A1C2260BE
:1020200005461E70A36FDA0702D4A3899B0517D556
:10203000019801A912F0A2FC284602B070BDFEF77B
:10204000DBFAD5E728463146224605F053F8054627
:10205000E8E7F0B2E1E704F1600012F0FDFBD1E740
:1020600004F1600012F038FCE2E700BF70B582B006
:1020700006460C460EF08EFF054608B1836933B361
:1020800001A9012012F07AFCA36FD80702D4A3891A
:10209000990528D5A368013B002BA36021DAA2692A
:1020A000934217DBF0B20A2814D023685A1C22602E
:1020B00005461E70A36FDA0702D4A3899B0517D5C6
:1020C000019801A912F05AFC284602B070BDFEF733
:1020D00093FAD5E728463146224605F00BF8054627
:1020E000E8E7F0B2E1E704F1600012F0B5FBD1E7F8
:1020F00004F1600012F0F0FBE2E700BF70B50546A6
:1021000088B008460C4601F0BBFB264AAB69049434
:102110000126441C04A9069202220394CDE901126F
:10212000AC680590079663B36946012012F026FC5F
:10213000A36F13F0010FB4F90C309AB201D19805D6
:1021400028D5910406D4A26F43F4005322F4005220
:10215000A381A267284601AA214605F05FF9A36F73
:10216000002814BF4FF0FF350A25DA0702D4A389EF
:102170009B050AD50098694612F000FC284608B075
:1021800070BD2846FEF738FACEE704F1600012F081
:10219000A3FBEFE704F1600012F05EFBB4F90C3032
:1021A0009AB2CEE70CDD020800B583B001900EF0C4
:1021B000F1FE019903B05DF804EBFFF79FBF00BF8C
:1021C00010B582B001900EF0E5FE04460EF00EFF51
:1021D000019A0146204602B0BDE810400EF0FEBE56
:1021E00010B582B0044601910EF000FF019A01463D
:1021F000204602B0BDE810400EF0F0BE38B50C46E7
:102200000968054609B1FFF7F9FF21462846BDE8F0
:102210003840FEF735BC00BF314B1B68834259D0B4
:10222000C26970B50546002A4FD0D16891B1002629
:102230008C5944B1214624682846FEF721FC002C25
:10224000F8D1EB69D9680436802EF1D12846FEF723
:1022500017FCEA69116800293DD02846FEF710FCFA
:10226000696911B12846FEF70BFCEA691AB11146FB
:102270002846FEF705FC296B11B12846FEF700FC45
:10228000696B11B12846FEF7FBFBA96B11B128461B
:10229000FEF7F6FBE96C11B12846FEF7F1FBA96CDD
:1022A00011B12846FEF7ECFBE96A11B12846FEF7AA
:1022B000E7FBAB696BB12B6A28469847E96B41B1E4
:1022C0002846BDE87040FFF799BF41690029C9D190
:1022D000D1E770BD704769690029C3D1C7E700BF66
:1022E00024020010838903F00903092B01D0002088
:1022F0007047FEF7E9B800BFF8B50C46054610B1C7
:102300008369002B41D0B4F90C309F049AB207D4F2
:10231000A26F43F4005322F40052A267A3819AB241
:102320000021960661605BD450071BD4D1065AD5B4
:1023300012073ED443F00403A3812369002B44D049
:10234000B4F90C60B307B7B222D122696369216A7C
:1023500022602846656AA84700286060C8BF002040
:1023600038DDF8BD616B0029E7D004F144039942E0
:1023700002D02846FEF784FB236C63600020606374
:10238000002BDAD0E36B2360F8BDFEF735F9BAE72E
:102390001D4B1E4918680123A38107F00907FEF7AA
:1023A000E1FE092FA681D0D121462846FDF7A6FFE0
:1023B000CBE721462846FEF749F888B9B4F90C3036
:1023C000A060A06123F00803B4E721462846FFF788
:1023D0006DF8B5E7B4F90C300DD143F02003A381BB
:1023E0004FF0FF30F8BD43F0400309222A604FF060
:1023F000FF30A381F8BD43F040030022A381626057
:102400004FF0FF30F8BD00BFC8D40208E522000835
:1024100038B50C46054608B1836963B128462146A4
:10242000FFF76AFF50B9D4E90023013B511CC4E90E
:102430000013107838BDFEF7DFF8EFE74FF0FF30FC
:1024400038BD00BF00B583B001900EF0A3FD019927
:1024500003B05DF804EBFFF7DBBF00BF0EB430B58F
:10246000A4B027AC4FF4017154F8042B0192ADF8DD
:102470001C100490089001F003FA0C4D0394002303
:102480004FF6FF7111931693ADF81E100590099049
:102490000D950EF07FFD019A039B04A902F0E8FB65
:1024A00024B0BDE8304003B0704700BF35250008B8
:1024B0000CB470B5A4B028AC054654F8042B0192B6
:1024C0004FF40173084604910891ADF81C3001F0F7
:1024D000D7F9014623460394059100240991019AF6
:1024E000084E0D96284604A94FF6FF7511941694D0
:1024F000ADF81E5002F0BCFB24B0BDE8704002B045
:10250000704700BF3525000810B50C46B1F90E1014
:102510000EF010FE002807DBD4E91623121843EB57
:10252000E073C4E9162310BDA38923F48053A3816B
:1025300010BD00BF002070472DE9F041B1F90C50EB
:102540009846EB050C4682B0B1F90E1017460646C8
:102550000AD425F4805543463A463046A58102B058
:10256000BDE8F0410EF07EBD02230093002200235F
:102570000EF036FEB4F90C50B4F90E10E9E700BFC6
:1025800010B582B00C460093B1F90E10D3170EF0BF
:1025900027FE4B1C08BFB0F1FF3F024609D00B4697
:1025A000A189104641F48051C4E91623A18102B0EB
:1025B00010BDA189104621F48051A18102B010BD47
:1025C000B1F90E100EF0ECBC11F0FF01034600F063
:1025D000030243D092BB70B4046841EA012646EA84
:1025E000064686EA0405A5F10133A4F1013223EA87
:1025F000050322EA0402134313F0803F0FD150F881
:10260000044F84EA0605A5F10132A4F1013322EA60
:10261000050223EA0403134313F0803FEFD003784D
:1026200023B936E010F8013F002B32D09942F9D19E
:1026300030E08A4211D09A071846CCD0184613F8D9
:10264000012B002AF5D1104670479907184607D08C
:10265000184601330278002AF7D17047002AF7D1D3
:102660000268A2F1013323EA020313F0803F08D18C
:1026700050F8042FA2F1013323EA020313F0803F44
:10268000F6D00378002BE8D010F8013F002BFBD1E7
:102690007047184670BC7047000000000000000042
:1026A000A2EB0300704700BF02780B78012A28BF15
:1026B0009A42F5D16DE9044540EA0104CDE902678B
:1026C0006FF0000C4FEA447212B380EA010414F078
:1026D000070F6AD100F0070420F0070004F003059B
:1026E00021F007014FEAC505F0E8042314F0040FB8
:1026F000F1E804670CFA05F462EA040266EA0406EB
:102700000AD063EA0403624667EA0407664603E008
:10271000F0E80423F1E8046782FA4CF582EA060443
:10272000A4FA8CF46CBB83FA4CF583EA0705A5FA8E
:102730008CF595B950E9022351E9026782FA4CF50C
:1027400082EA0604A4FA8CF483FA4CF583EA0705BE
:10275000A5FA8CF52543DBD09CB92DBAB5FA85F4E2
:1027600024F0070427FA04F1DDE9026723FA04F3F1
:1027700003F0FF0001F0FF01FDE80445A0EB0100BC
:10278000704724BAB4FA84F424F0070426FA04F15A
:10279000DDE9026722FA04F202F0FF0001F0FF0116
:1027A000FDE80445A0EB0100704714F0030F3CD195
:1027B00010F0030428D150F8082B51F8083B82FA96
:1027C0004CF582EA0305A5FA8CF55DB950F8042CA6
:1027D00051F8043C82FA4CF582EA0305A5FA8CF51F
:1027E000002DE8D02DBAB5FA85F424F0070423FAB9
:1027F00004F122FA04F202F0FF0001F0FF01FDE80B
:102800000445A0EB010070474FEAC40420F0030028
:1028100050F8082B21F0030151F8083B0CFA04F49E
:1028200062EA040263EA0403C9E710F003041AD061
:10283000A1EB040120F00300E40750F8042B06D0BC
:102840000FD28B785FFAA2F4E41A06D12BB1CB78C1
:102850005FFAB2F4E41A00D11BB920465DF8104BC0
:10286000704701F1040150F8042BCC0721F003015B
:1028700051F8043B48D824D222F07F4482FA4CF528
:1028800094EA1325A5FA8CF50AD165B951F8043BF1
:1028900084EA0204B4EB036F0ED150F8042BEBE78B
:1028A0004FEA132355E035F07F454DD10878FDE818
:1028B0000445C0F1000070474FEA126203F0FF03C5
:1028C00047E002EA1C4482FA4CF594EA1345A5FA63
:1028D0008CF50AD165B951F8043B84EA0204B4EBE3
:1028E000034F0CD150F8042BEBE74FEA134330E0D1
:1028F00015EA1C4528D10B884FEA124229E04FEA1D
:10290000124203EA1C4324E002F0FF0482FA4CF571
:1029100094EA1365A5FA8CF50AD165B951F8043B20
:1029200084EA0204B4EB032F09D150F8042BEBE73F
:102930004FEA13630DE015F0FF0F05D10B684FEA66
:10294000122223F07F4304E04FF00000FDE804452D
:10295000704712BA1BBA82FA4CF482EA0304A4FA52
:102960008CF5B5FA85F402FA04F203FA04F34FEA9F
:102970001260FDE80445A0EB13607047FFF794BEBA
:1029800080EA0102844612F0030F4FD111F0030FC9
:1029900032D14DF8044D11F0040F51F8043B0BD027
:1029A000A3F101329A4312F0803F04BF4CF8043B7C
:1029B00051F8043B16D100BF51F8044BA3F101328A
:1029C0009A4312F0803FA4F101320BD14CF8043B42
:1029D000A24312F0803F04BF51F8043B4CF8044B73
:1029E000EAD023460CF8013B13F0FF0F4FEA3323E4
:1029F000F8D15DF8044B704711F0010F06D011F8C3
:102A0000012B0CF8012B002A08BF704711F0020FB0
:102A1000BFD031F8022B12F0FF0F16BF2CF8022B9B
:102A20008CF8002012F47F4FB3D1704711F8012BBE
:102A30000CF8012B002AF9D1704700BF4269002A27
:102A400040F26C73A8BF6FF063031344920710B495
:102A500008D14D4A4D4C4E4902FB0342B1EBB20F37
:102A6000C0F08F80484C49494A4A04FB0313B2EB3B
:102A7000331F2CBF01220022D0E906315B0003EB9B
:102A800001131344212B27DDA3F5B553023B352B4E
:102A900024D8352B22D8DFE803F01B212121212166
:102AA000212121212121212121211B1B1B21212128
:102AB000212121212121212121211B1B1B1B1B2124
:102AC00021212121212121212121211B211B211B08
:102AD00001205DF8044B7047002B03DA00205DF8FD
:102AE000044B7047212BF9D801A252F823F000BF04
:102AF000792B0008792B0008DD2A0008DD2A000860
:102B0000DD2A0008DD2A0008DD2A0008DD2A000889
:102B1000DD2A0008DD2A0008792B0008792B00083F
:102B2000792B0008792B0008DD2A0008DD2A00082F
:102B3000792B0008792B0008DD2A0008DD2A00081F
:102B4000DD2A0008DD2A0008DD2A0008DD2A000849
:102B5000DD2A0008DD2A0008DD2A0008DD2A000839
:102B6000792B0008792B0008DD2A0008DD2A0008EF
:102B7000792B0008792B00084FF0FF305DF8044BEB
:102B80007047012278E700BF295C8FC250B81E054C
:102B9000285C8F020AD7A3002DE9F04F147899B072
:102BA000814688465CB9A246B8F1000F00F09080DB
:102BB0000023504609F80A3019B0BDE8F08F9B4653
:102BC00000230B939A462346252B14460DD008F17B
:102BD000FF3252457AD909F80A3001340AF1010A64
:102BE0002378002BE0D0252BF1D16578302D76D0DD
:102BF0002B2D74D02946A1F13103082B04F10104D7
:102C00004FF0000572D90026452965D04F2963D0C1
:102C1000A1F12503552B59D8DFE813F0EB0158003B
:102C200058005800580058005800580058005800E4
:102C300058005800580058005800580058005800D4
:102C400058005800580058005800580058005800C4
:102C5000580058005002730224014E0158006E01C2
:102C6000840189009100580058005800290258003A
:102C70005800A8005800DB0137043B044C04CC0189
:102C800069037C038303B0035800580058005800C0
:102C9000580058002D02D600100271007100580033
:102CA000F600D60058001A01890091001F01960213
:102CB0005800A8005800A102A8024D03580358006C
:102CC000E4034F045604F10302F0F4FF4FF0000A4E
:102CD000504619B0BDE8F08F6178013498E7A178CB
:102CE000A1F13103082B04F102048CD8204610A96D
:102CF0000A2201F081FF109C0646217884E7C24831
:102D0000C24ADBF80C30642908BF0246A8EB0A016E
:102D100009EB0A0006F01CF90028D7DB8244D045F5
:102D2000D4D92378002B3FF43FAF013458E7B7489C
:102D3000B54ADBF808306B2908BF0246E6E7DBF846
:102D40000830002B00F0E2830C2B09D0B04A82FB44
:102D50000320DA17C2EB600202EB4202A3EB82030C
:102D6000A948AA4A492908BF0246CFE7DBF808204C
:102D7000A84B0B2ACCBFA422A02213445F6838467C
:102D800000F07EFD0028CCD008F1FF3656459DD9D5
:102D90000AF1FF32791EA04F00EB0A054A44207861
:102DA00011F8013F50280AF1010A06D1D85D00F060
:102DB0000300012804BF2033DBB2AA4502F8013F1B
:102DC000AFD0B245EBD381E7924BDBF8102053F83C
:102DD0002260304600F054FD0028A2D008F1FF35F3
:102DE000AA45BFF473AF0AF1FF33721E00EB0A016C
:102DF0004B440AF1010A12F8010F03F8010F8A454A
:102E00008FD0AA45F5D361E75846FFF717FEDBF8E8
:102E1000141000290546C0F29184804B83FB0123E6
:102E2000CA17C2EB6312642303FB1212A9187B4D6D
:102E300085FB0123CA176420C2EB631200FB121248
:102E40000244A5FB02135B0900FB13236E4A5DE7F6
:102E5000DBF81C30724A013358E7DBF810306A4A5D
:102E6000013353E76F4ADBF81430022E38BF0226D5
:102E70009342ACBF00220122002B0C9209EB0A07FF
:102E8000A8EB0A01C0F24184644A82FB0320DA17EE
:102E9000C2EB60101330002D40F0A583624A634DF1
:102EA0000C9BF61ACDE900602B46384606F050F828
:102EB0000028BFF633AF09E7DBE904300028DBF870
:102EC0000C6003F1010309EB0A05A8EB0A01C0F24B
:102ED0000984524A82FB0027C217C2EB671264279B
:102EE00007FB1202CDE900622846514A06F030F88D
:102EF0000028BFF613AFE9E625238DF84030002DFA
:102F000040F0F1822B238DF8413004230DF142056E
:102F1000484A28461E2106F01BF8002840F3ED829F
:102F20002844EBE2DBF814203E4F0C92BA4258469C
:102F3000ACBF00270127FFF781FD0C9A002A01464C
:102F4000C0F21484354B83FB0203D017C0EB63132C
:102F5000133396463148A0FB0E0C4FEA5C1C6420EC
:102F600000FB1CEC0029C0F2108300F039842D48CE
:102F70008242C0F24B8300278C44BCF1FF3F00F03B
:102F80000E83BCF1640F04BF01334FF0000C6422C8
:102F900002FB03C3002F40F043832B2D00F060831E
:102FA00010AF384625210170002D40F066830130B6
:102FB0000C93CDE15846FFF741FDDBF818100029CE
:102FC00000F0C4820139002840F3ED8201230E4A4B
:102FD0009CE6DBF804300093DBF80830164AA8EBD7
:102FE0000A0109EB0A0005F0B3FF0028BFF696AE10
:102FF0006CE608F1FF3353457FF668AE252309F8E8
:103000000A300AF1010A8CE6D8F60208E0F6020856
:10301000ABAAAA2AACD60208C5D302081F85EB5179
:1030200004F7020894F8FFFFC8F602081CDD020846
:10303000E4F60208F4F602080CF70208C84BD3F8CD
:10304000A050284600F01CFC2B78002B3FF469AE02
:10305000229B00932A465B46A8EB0A0109EB0A0073
:10306000FFF79AFD00287FF731AE824459E6DBF87E
:103070000430BC4A4AE6DBF81830B94A183352F833
:103080002360304600F0FCFB00283FF44AAE08F114
:10309000FF35AA45BFF41AAE0AF1FF33721E00EBEA
:1030A0000A014B440AF1010A12F8010F03F8010F5B
:1030B0008A453FF436AEAA45F4D307E6A84BDBF8C1
:1030C000182003EB8203DE6F304600F0D9FB0028A6
:1030D0003FF427AE08F1FF35AA45BFF4F7AD0AF17A
:1030E000FF33721E00EB0A014B440AF1010A12F889
:1030F000010F03F8010F8A453FF413AEAA45F4D33C
:10310000E4E5DBF81030964A0C3352F82360304681
:1031100000F0B6FB00283FF404AE08F1FF35AA45E5
:10312000BFF4D4AD0AF1FF33721E00EB0A014B4429
:103130000AF1010A12F8010F03F8010F8A453FF462
:10314000F0ADAA45F4D3C1E508F1FF3353457FF64E
:10315000BDAD0A2309F80A300AF1010AE1E5804B06
:10316000D3F8E450284600F08BFB6DE7DBF8203005
:10317000002B80F2F18100220023CDE90C23DBF843
:103180001450B5F145014FEAE573089143F1FF3161
:103190000991DDE90867A8EB0A01002E07EE901AF5
:1031A00077F1000109EB0A0005DAB5F1420143F1BC
:1031B000FF330891099308996B4E8A0809996F1E8D
:1031C00042EA81728B10684986FB07EC05F22B16E8
:1031D000FF17C7EB6C1781FB061CF617C6EBEC1646
:1031E000D21BA5F1460540F26D1C0CFB05FC63EB00
:1031F000E773DBF81C70921943EBE67312EB0C02D9
:1032000043EBEC73D21943EBE773971843EB030CD2
:10321000B9184CEB030302910393DDE90212D300CA
:10322000029A43EA5173D200CDE90223DBE9015649
:10323000DDE90223921943EBE67317011E01B91A67
:1032400046EA127666EB030304910593DDE9046711
:10325000BB0043EA9673B200CDE90423DDE9042301
:10326000521943EBE57316011D01B11A45EA1275B7
:1032700065EB030307930691DDE90612950045EA25
:1032800091758E00CDE90665DDE90667DBF8003053
:103290000D99364AF61847EBE3770C9BF31A67EB68
:1032A000010517EE901ACDE9003505F051FE002812
:1032B000BFF634AD0AE508F1FF3353457FF606AD9E
:1032C000092309F80A300AF1010A2AE508F1FF3357
:1032D00053457FF6FBACDBF8183009EB0A020AF124
:1032E000010A002B40F034813723137019E5DBF815
:1032F0001810002900F00C810139DBF81C30194A44
:103300000733591A1A4B83FB01030B44C917C1EB4E
:10331000A303FBE4124BD3F89850284600F0B0FA10
:1033200092E6DBF81470134B9F4280F2F3802D225B
:10333000DB1B0C938DF84020002E40F079810DF1BD
:10334000410010AF25230370002D40F0FB800130B9
:103350000949FFF715FB0C9B00933A4633463EE6BE
:10336000ACD60208D8F602081F85EB5118F7020800
:103370009324499294F8FFFF00F70208DBF820300D
:10338000002BFFF6D2AC02F08FFC0B9B002B00F061
:103390003E82DBF82030C04A002BD4BF002301233B
:1033A000554652F82360304600F06AFAB0B108F191
:1033B000FF318A45BFF488AC0AF1FF33721E00EB7F
:1033C0000A054B4402E08A45BFF47EAC0AF1010ACB
:1033D00012F8010F03F8010FAA45F4D102F06AFCBC
:1033E000AA464FE008F1FF3353457FF66FACDBF898
:1033F0001830303309F80A300AF1010A91E4DBF899
:103400002030002BFFF691AC02F04EFC0B9B002B02
:1034100000F0208104F0BAFDDBF820309F4D002B36
:10342000CCBF0A23052309EB0A0750F83360764224
:1034300002F040FC85FB06303044F317C3EB60100C
:103440000B9304F0ABFD85FB00321118944BC217AF
:10345000C2EB6112C2EB021283FB06310B9BA0EBA5
:1034600082020E440092A8EB0A018E4AC3EBE623C7
:10347000384605F06DFD0028FFF628AC8244D045A3
:103480007FF624AC01230B934BE4DBF80030864A33
:103490003CE4DBE90023CDE90032A8EB0A01DBF8CC
:1034A0000830824A09EB0A0005F052FD0028BFF6F9
:1034B00035AC0BE4DBE9061321E77D4BD3F89C50D8
:1034C000284600F0DDF9BFE5DBF814000028C0F263
:1034D000DD80784B83FB0032C317C3EB6213642299
:1034E00002FB130373E5062E38BF0626B31F8DF8C3
:1034F00041507FF40BAD0DF1420528466E49FFF7B0
:103500003FFA229B009310AA5B46A5E50C2327E413
:103510000621F2E607F26C732B2D0C9302D010AF4C
:1035200038460FE70C9A42F20F739A4240F25D81DF
:103530008DF84050002E7BD125238DF841300DF1C0
:10354000410010AF30234370023001E706213AE515
:1035500030331370FFF7E5BB02F0A6FB0B9B002B8B
:1035600075D004F013FDDBF82030002BCCBF0A230C
:103570000523012250F833500B926D4202F09AFB62
:103580002A46EB17CDE90C23F9E54C48DBF814206B
:1035900082424FDB8C44BCF1FF3F7FF4F8AC013B2F
:1035A0004FF0630CF3E4DBF81C3046D0DBF814007A
:1035B000002840F26B72A8BF6FF064020244CB1A7D
:1035C000910740F0FF803E483E4D3F4900FB0250CE
:1035D000B1EBB00F80F0F68001229B1A052BB4BF2F
:1035E00035233423F3E4632837DDDFF8E8E0DFF840
:1035F000E8C0364A2B2D14BF75466546DFF8DCE07F
:10360000DFF8DCC07345B8BF654649E40CF1FF3212
:10361000BCF1000F00F0F5804FF0640C0CFB0323AD
:103620002D228DF8402066BB0DF1410010AFB9E4AA
:10363000013E84E601210F469EE4254A0A335B1AC7
:1036400082FB03121A44DB17C3EBA203BFE402F0B0
:1036500037FB86E702F034FBDCE61C4A1D4D1FE415
:1036600042F20F72934240F2C9808DF8405046B941
:103670000DF1410010AF2521017030214170023061
:1036800096E4013E0DF1410010AF8BE400F26C7046
:1036900003F014FE1DE700BF980600108988888893
:1036A000C5B3A29130F70208D8F6020820F7020845
:1036B000ACD602081F85EB51F8F6020895F8FFFF1B
:1036C000295C8FC250B81E05285C8F02C0F6020824
:1036D000932449921CDD0208D0F6020894F8FFFFFB
:1036E000D4F6020800F26C700E930C9103F0E6FD24
:1036F0004E4B0C9983FB0037C217C2EB671264274D
:103700000E9B07FB1202FFF7EDBB03F26C700F91EB
:103710000E9303F0D3FD454B024683FB003CC017DC
:10372000DDE90E31C0EB6C10002D56D042F20F7C5B
:1037300062453FF75AAF3E4D3E4A5FE701F26C707B
:1037400003F0BCFD394BC21783FB0031C2EB6112A1
:103750006423002D03FB12025CDADBF81410A3F2E1
:10376000CF739942B8BF0125FFF760BB0E9002F2FC
:103770006C700C9203F0A2FD2C4BDBF814E00C9A59
:103780000E9983FB003CBEF1000F4FEAE073C3EBE0
:103790006C13BFF6DFAB0EF26C70CDE90E130C921A
:1037A00003F08CFD214B0C9A83FB003E4FEAE07C3A
:1037B000CCEB6E1C4FF0640EDDE90E130EFB1C0CFF
:1037C000FFF7D0BB1C481D4D1D4900FB0252B1EB59
:1037D000321F2CBF01220022FFE6154D194A0DE7CA
:1037E000BCF1FF3F7FF4D3ABD9E6002E7FF497AE58
:1037F000252310AF8DF840303846A3E610AF384689
:1038000039E75A1E642303FB02F3633308E702F02F
:1038100057FABEE53FF40AAB0B4BDBF814109942A4
:10382000B8BF4FF0FF35FFF701BB00BF1F85EB515D
:103830001CDD0208C0F60208295C8FC250B81E05C4
:103840000AD7A300C8F6020894F8FFFF10B582B0AB
:10385000024C0094FFF7A0F902B010BDCCD40208CE
:10386000FFF79AB90000000000000000000000000F
:103870000000000000000000000000000000000048
:1038800090F800F06DE9024520F007016FF0000CA0
:1038900010F0070491F820F040F049804FF0000448
:1038A0006FF00700D1E9002391F840F000F1080023
:1038B00082FA4CF2A4FA8CF283FA4CF3A2FA8CF35B
:1038C0004BBBD1E9022382FA4CF200F10800A4FAC2
:1038D0008CF283FA4CF3A2FA8CF3E3B9D1E9042316
:1038E00082FA4CF200F10800A4FA8CF283FA4CF34D
:1038F000A2FA8CF37BB9D1E9062301F1200182FA07
:103900004CF200F10800A4FA8CF283FA4CF3A2FA0C
:103910008CF3002BC6D0002A04BF04301A4612BA1A
:10392000B2FA82F2FDE8024500EBD2007047D1E91D
:10393000002304F00305C4F100004FEAC50514F0AC
:10394000040F91F840F00CFA05F562EA05021CBF7D
:1039500063EA050362464FF00004A9E70000000097
:1039600070B504460D4645EC104B164604F0BCFEFF
:1039700051EC100B7EB1C5F30A53C3F16B03002B5E
:1039800009DD1B0503F17F55002405F5401522468E
:103990002B460AF027F870BD2DE9F04FA94C24689A
:1039A000A3B08046002520468A46079406921C460E
:1039B0001E95FFF765FF002183460020CDE9040135
:1039C000CDF874A05246174612F8013B2D2B2FD884
:1039D000DFE813F0BC002E002E002E002E002E007B
:1039E0002E002E002E00CA00CA00CA00CA00CA005B
:1039F0002E002E002E002E002E002E002E002E0057
:103A00002E002E002E002E002E002E002E002E0046
:103A10002E002E00CA002E002E002E002E002E009A
:103A20002E002E002E002E002E0032042E00270421
:103A300000220A92302B00F0998000220B922F2B4B
:103A40001C4640F31C854FF000094E464D46384653
:103A500013E00130082D1D90C8BF09EB89090478D7
:103A6000C6BF03EB4903A3F13009A2F130062F2CA6
:103A700005F10105234640F3918006EB8602392CBF
:103A800003EB4202E5DD07995A4605F0E3FA0346E7
:103A900000287CD11D9A11465A441D9211F80B4002
:103AA000002D40F0E185302C40F09F85C2F10101EE
:103AB000531801321D921478302CF9D0A4F1310240
:103AC000082A00F264831D9F03F1010B0023A4F177
:103AD000300E01253C46089306EB86060EEB4606A3
:103AE0000023621C1D926478A4F13001092920D8BA
:103AF0001D9C01338E460029F3D0012B9B4405F118
:103B0000010000F0D6862B4403F1FF3C04E04600A0
:103B10006245154600F0A684082D05F1010206EB6A
:103B20008600F4DD102ADCBF09EB89094FEA490958
:103B3000EEE70122652C079200F08980452C3BD1ED
:103B4000002D40F084800B9A1A437FD1069B13B15D
:103B5000069BC3F800A04FF0000A4FF0000B4BEC9F
:103B600010AB23B0BDE8F08F1D922CE77B7803F0FB
:103B7000DF03582B00F0578401371D973B78302B1B
:103B8000FAD0002B00F0D28001220B9257E70023DD
:103B9000652CCDE907359B46D2D0CFE707995A4629
:103BA00005F058FA0346002800F0D48008954FF03D
:103BB000000BCDF81CB05B4600220C92002D00F0EB
:103BC0009180304609F094FE089C2346002C08BFE3
:103BD0002B4608930C9B102DA3EB0B032C46A8BF80
:103BE0001024092DCDE904010B9314DD164B03EBD2
:103BF000C40353E9122309F0F5FE024648468A46FB
:103C0000914609F075FE02460B464846514609F0BA
:103C100033FDCDE904010F2D00F3A5800B9B002B94
:103C200000F0FE830B9B40F34E83162B40F3EA8497
:103C30000B9AC5F12503934280F21A850B9B2C1B2E
:103C40001C4496E0C8D70208E8D702080025DDF832
:103C500074A00AF101021D929AF801402B2C00F089
:103C600093822D2C00F027824FF0000EA4F1300239
:103C7000092A00F21B82302C05D11D9A01321D92B7
:103C80001478302CFAD0A4F13102082A94D81D9966
:103C90000C914A1C1D92A4F130004C782F2C08DCAA
:103CA000FCE301321D929CF801402F2CA1F1300061
:103CB00006DD00EB8001392C944604EB4101F0DD78
:103CC0000C99521A082A40F3E98344F61F620C92B9
:103CD000BEF1000F3FF472AF0C9A52420C92002DCD
:103CE0007FF46FAF0B9A134320D1079B002B7FF417
:103CF0002DAF692C00F02A8400F3FD82492C00F0DE
:103D000025844E2C7FF422AFB9491DA804F000F899
:103D100000283FF41BAF1D9B1B78282B00F04A8521
:103D2000B44805F0CDF85BEC10AB03E04FF0000AAF
:103D30004FF0000B069A0AB11D9B13600A9B002BE3
:103D40003FF40DAF0BF100439B464BEC10AB23B09F
:103D5000BDE8F08F1D9A089502EB0B011D9112F83A
:103D60000B409B46C0E60B9B2C1B1C44002C40F3D5
:103D7000E78214F00F030AD09F4901EBC301D1E998
:103D80000001DDE9042309F02DFECDE9040134F042
:103D90000F0340F0818200230793089A00962B4678
:103DA0003946404604F0DEF91490002800F0E8831C
:103DB0000C9BABEB03000B9B0026002BB4BF024611
:103DC000324623EAE3730D9237461193B346149CAF
:103DD0004046616804F03AF98146002800F04881C5
:103DE00022699DED047B0232920004F10C010C303B
:103DF0008DED087BFDF75CFF9DED080B20AA1FA948
:103E0000404604F0FDFC1E90002800F021810121B5
:103E1000404604F047FA0746002800F029811F9B1E
:103E2000002BC0F218810D9A119D9E180799209CB5
:103E3000724A5B1A2344013B9342C4F1360480F278
:103E4000B380D21A1F2AA4EB020400F327810123B6
:103E500093400E9300231593079B25443444A642B8
:103E60001D443346A8BF2346AB42A8BF2B46002BB8
:103E700002DDE41AED1AF61A0D9B002B00F3C88040
:103E8000002C00F3DC800B9B002B00F3E880002D5E
:103E900000F3FA80002E08DD39463246404604F031
:103EA00009FB0746002800F0E3801E994A46404679
:103EB00004F086FB8346002800F0DA800023C26805
:103EC000C3603946109204F05DFB0028C0F24D84B7
:103ED000059B0C9300F0E3833946584604F0EEFC52
:103EE00055EC104B10EE100A00224FF0804329468B
:103EF00009F0F4FF00285CD0109B002B00F0E88054
:103F00009FED377B3E4C8DED0E7B002325461C46F6
:103F10000C9A3C4E3C4B16409E4200F0FF80079BA3
:103F200083B1B6F1D46F0DD82FA3D3E90023DDE917
:103F30000E0109F0D3FF002840F0968105F1D66309
:103F40009B1B1D4620462946DDE9084545EC104BE4
:103F5000CDE9040104F0C8FBDDE9040153EC102BAA
:103F600009F040FD22462B4609F086FB02460B462F
:103F7000CDE904238A46079B2BB9224B0AEA0303A7
:103F80009E4200F00D811E99404604F093F8494688
:103F9000404604F08FF83946404604F08BF8594605
:103FA000404604F087F812E70023159301230E938F
:103FB00052E7164B20462946002209F013FD109BBC
:103FC000CDE90E01002B7ED101F100431290139335
:103FD000DDE9122314461D469AE700BFAFF30080C7
:103FE000000000000000F03F0000C0FFFFFFDF41C5
:103FF00048F702081CDD0208E8D7020802FCFFFFB0
:104000000000F03F0000F07F0000E07F0000E03F94
:1040100039461A46404604F0F1F9074640B30146D6
:104020001E9A404604F048F910B30C901E99404681
:1040300004F040F80C9B1E93002C7FF724AF1E99D0
:104040002246404604F036FA1E9000287FF41BAF4B
:1040500004465E460EE0119A0D9ED51AE6E64946E4
:10406000119A404604F0CAF9814600287FF40FAF48
:104070005E461E9CAA4B0593002222230492DDE992
:1040800004ABC8F80030B7E049462A46404604F081
:1040900011FA814600287FF4FDAEE9E7A14AD31A60
:1040A000012202FA03F315930E92D5E60022CDF811
:1040B00074A00C9282E54FF0010E0AF102021D92EB
:1040C0009AF80240D2E59DED0E7B8DED127B7FE7E5
:1040D000049B002B40F0B3800C9BC3F31303002B15
:1040E00040F0B480904B00222046294609F0ECFEB7
:1040F000002840F094828D4B00222046294609F08A
:1041000071FC0A460146CDE90E1202F100431A90F5
:104110001B93DDE91A3425461C46F9E6A2F15473D7
:1041200005939DED047B20462946B0EE470AF0EE4C
:10413000670A55EC174BCDE9040104F0D5FADDE927
:10414000040153EC102B09F04DFC22462B4609F0DC
:1041500093FA734B764A0B40CDE904018C46DDE9B6
:104160000801934204460D46CDE9184577D9714BB5
:10417000994203D1B0F1FF3F3FF47AAF6D494FF060
:10418000FF33CDE90431FEE64FF0000E95E7652CD4
:1041900000F0AB80452C00F0A88001220792A1E539
:1041A000DDE90E452046294609F07CFF09F0ECFBCD
:1041B0000B4602462946204609F05CFA049C109EF4
:1041C000CAF3130C264356EA0C0304460D4671D07D
:1041D0004BA3D3E9002309F077FE48B94AA3D3E9FA
:1041E00000232046294609F08DFE00283FF4CBAE7F
:1041F0005E46DDE904AB1E9C2146404603F05AFFB3
:104200004946404603F056FF3946404603F052FF08
:104210001499404603F04EFF3146404603F04AFFF2
:1042200088E501230A937A1C1D927B78002B3FF4CA
:104230008DAC1746FFF7FEBB00230A93F3E7049B00
:10424000012B03D10C9B002B00F020839FED307BD2
:10425000394C002325468DED0E7B1C4658E60CF1AB
:10426000547ACDF814A086E6DDE90E0109F092FE3D
:10427000012838BF012009F03BFB109BCDE90E015E
:10428000002B40F0128101F1004316901793DDE9F5
:10429000163425461C4651E6B3F59A7F40F30A8151
:1042A0001F4B0593002222230492DDE904ABC8F8DA
:1042B00000303FE518A3D3E9002309F005FE0028EC
:1042C0003FF461AE94E71633FFF64DAD0C9A1B4BED
:1042D000ABEB020003EBC003D3E90023DDE90401EB
:1042E00009F0AAFC82468B4624E5002208929346F8
:1042F0000122079227E46E2C3FF406AD26E400BFAE
:104300009535A094FFFFDF3F35E5AF350000E03F76
:10431000000000000000F03F9535A094FFFFCF3F64
:104320000000F07FE2FBFFFF0000F03F0000E03FF5
:10433000FFFF9F7CFFFFEF7F0000F0BFE8D7020880
:104340003FF429AD644214F00F020AD0BC4B03EBDA
:10435000C203DDE90401D3E9002309F06DFCCDE9D6
:10436000040124113FF417AD1F2C40DC14F010039E
:104370001946DDE9042318BF6A21DFF8E4920791AA
:104380004FF0000C14F0010F1046194607D0D9E980
:10439000002309F027FB4FF0010C02460B46641086
:1043A00009F10809EED1BCF1000F01D0CDE90423D9
:1043B000079B9BB1DDE90412C2F30A53C3F16B03FF
:1043C000002B11460ADD1F2B40F32B820022342BD9
:1043D000049240F353824FF05C730593DDE90401CE
:1043E0000022002309F066FD00283FF4D6AC22230A
:1043F000C8F800304FF0000A4FF0000B9AE4DDE9F6
:1044000020131F9A049102F2334223F4801343EAEB
:1044100002530593240742BF059B43F000430593D5
:10442000DDE904AB86E40A9A02941EABCDE90032C2
:104430001DA9844A1FAB404603F0D2F910F00705CE
:1044400004463FF473AC062D40F0A580069B01376F
:10445000002B3FF480AB1F604FF0000A4FF0000BC1
:10446000FFF77DBB1D46082A7FF736AB102DDCBF5A
:1044700009EB890901EB49090023FFF732BB0799D2
:104480005A46384604F0E6FD002800F0B1800023CB
:104490001D46089399461E46FFF789BB44F61F62E6
:1044A0009042A8BF10460C9012E49DED0E7B8DED5E
:1044B000167BECE6102B4FEA2314634B40F39381F9
:1044C00019460793DDE904234FF0000C8A46E146C4
:1044D00014F0010F104619464FEA640409F101096E
:1044E00007D0DAE9002309F07DFA4FF0010C02460B
:1044F0000B46012C0AF1080AEAD1BCF1000F01D0E9
:10450000CDE90423059B514CA3F154730593079BFC
:1045100003EBC909D9E90001DDE9042309F062FAD6
:10452000DFF840C101EA04036345CDE904010A460E
:1045300000F2F98046498B4240F2EE80454B0593EC
:10454000002307934FF0FF33049326E442491DA84C
:1045500003F0DEFB00283FF4F9AA1D9B3F49013B15
:104560001DA81D9303F0D4FB10B91D9B01331D93AF
:1045700036480023CDE90430DDE904ABFFF7DABBB0
:10458000324B0593149B04932223DDE904ABC8F856
:104590000030FFF7CFBB1E9A3AB1352120A804F0B6
:1045A000DBF91E99404603F085FD013D042D3FF6E1
:1045B00031AF01A353F825F0FF430008E14500089F
:1045C000DB450008CD450008FF4300084FF0FF33EE
:1045D0006FF00045CDE904351CE71C4B059319E746
:1045E000209B0493219B059314E70023FFF766BAF1
:1045F0001D9A13465A441D9213F80B4006468146F5
:10460000FFF751BA0E4901EBC301D1E90001DDE921
:10461000042309F0E7F982468B46FFF78BBB9FED39
:10462000047B8DED1A7B9FED047B8DED0E7B70E599
:10463000000000000000E0BF000000000000E03FBC
:10464000E8D7020838D60208D8D802080000F07F60
:104650000000907CFFFFEF7F3CF7020840F7020864
:1046600060D602080000A07C08958346FFF73CBA9C
:10467000914CC5F10F0504EBC501DDE90423D1E937
:10468000000109F0AFF90B9B5D1B04EBC504D4E9F5
:10469000002309F0A7F982468B46FFF74BBB109920
:1046A000864A5E46C3F31303DDE908AB002944D014
:1046B000934200F0BE80159B002B00F08F800C9A77
:1046C000134210D0109B079ADDE90401002B00F083
:1046D0008E80FFF745F902460B465046594608F0D2
:1046E000CBFF82468B46079B1E9C002B3FF484AD7C
:1046F000734A0023CDE918325046DDE918235946A4
:1047000009F070F903460B4308BF222382468B460B
:1047100008BFC8F800306FE502F154730593002319
:104720000793FFF73ABB0023049305942223DDE9A6
:1047300004ABC8F80030FFF7FDBA049A1343BAD1AE
:10474000079B002B40F0A4805E4B0C9A1A40134646
:10475000A3F580136FEA13536FEA035305934FF0E9
:10476000FF330493DDE904ABBDE7DDE90401109BF1
:1047700003435E46DDE908ABB5D1C1F313030C91E9
:10478000002BB0D121F000431B0D1B05B3F1D66FF8
:10479000A9D9736913B93369012BA4DD314601220C
:1047A000404603F087FE3946064603F0EBFE00283C
:1047B00099DDC5E744491DA820AA03F0C1FA0528E0
:1047C0007FF4AEAA219B43F0FF4343F4E00305933B
:1047D000209B0493DDE904ABFFF7ACBA0E9B049A6F
:1047E000134280D06EE707934FF000098AE6FFF787
:1047F000B7F802460B465046594608F03BFF0022E8
:10480000002382468B4609F055FB00283FF46BAF2E
:1048100022231E9CC8F800304FF0000A4FF0000B16
:10482000EAE44FF0FF3202FA03F3049A1A400492CA
:10483000D4E5079B0499F3B1224B0C9A1340B3F1D2
:10484000D46F18D81B0DC3F16B034FF0FF3202FA7F
:1048500003F399427FF42FAF1C4B0C9A9A4224D059
:10486000184B0C9A1A4002F5801305930023049309
:10487000DDE904AB37E74FF0FF33EAE7203B4FF0C9
:10488000FF3202FA03F30B400593A7E55E46BFE74C
:104890000C4B0C9A1A40B2F1D66F13463FF758AF43
:1048A000B2F15C7FB4DD1E9C22E70131D8D1FFF765
:1048B000E0BB2A460546D6E5E8D70208FFFF0F0011
:1048C000000050390000F07F4CD60208FFFFEF7F58
:1048D000014BFFF761B800BFCCD4020830B583B0FC
:1048E0000D46044601920CF055FB019B2A462146D9
:1048F00003B0BDE83040FFF74FB800BF10B582B03D
:10490000044601910CF046FB019A034B214602B08C
:10491000BDE81040FFF740B8CCD40208F0B52DED4B
:10492000028B83B00D46044601920CF033FB2A46FD
:104930002146019BFFF730F855EC104B10EE102A82
:1049400010EE100A2B46294609F0E6FA80BB2046F5
:10495000294609F03FFB08EE100ADFED1D7AB0EEA4
:10496000C87AB4EE677AF1EE10FA11DD25F000474F
:10497000184B204639464FF0FF3209F0CDFA68B99E
:10498000144B204639464FF0FF3209F0A7FA28B9F8
:10499000B0EE480A03B0BDEC028BF0BD0CF0FAFAA1
:1049A0002223B0EE480A036003B0BDEC028BF0BDD9
:1049B000002D094804DA04F025FAB1EE408AE7E751
:1049C00003B0BDEC028BBDE8F04004F01BBA00BFA1
:1049D000FFFF7F7FFFFFEF7F1CDD0208F0B52DEDAD
:1049E000028B83B0044601910CF0D4FA2146019A5F
:1049F000264BFEF7D1FF55EC104B10EE102A10EEAF
:104A0000100A2B46294609F087FA80BB2046294622
:104A100009F0E0FA08EE100ADFED1D7AB0EEC87A70
:104A2000B4EE677AF1EE10FA11DD25F00047194B6C
:104A3000204639464FF0FF3209F06EFA68B9154B3F
:104A4000204639464FF0FF3209F048FA28B9B0EE57
:104A5000480A03B0BDEC028BF0BD0CF09BFA222398
:104A6000B0EE480A036003B0BDEC028BF0BD002D30
:104A7000094804DA04F0C6F9B1EE408AE7E703B06A
:104A8000BDEC028BBDE8F04004F0BCB9CCD4020808
:104A9000FFFF7F7FFFFFEF7F1CDD02082DE9F0475E
:104AA0004B4D86468C4660461CF8014B2E5D16F039
:104AB0000806F8D12D2C57D02B2C0ABF9CF800509B
:104AC000254600F1020C5BB1102B53D04FF0FF389C
:104AD000B8FBF3F803FB08FA6FEA0A0A994607E005
:104AE000302D5BD00A23DFF8EC8099464FF0050AA1
:104AF0000027384607E0404513D826D009FB004080
:104B000001271CF8015BA5F13004092C05D9A5F19A
:104B10004104192C08D8A5F13704A3420CDD002F5D
:104B2000E9DA4FF0FF37ECE7A5F16104192C03D85F
:104B3000A5F15704A342F2DC002F0BDB06B1404283
:104B40000AB177B91160BDE8F0875445D6DD4FF062
:104B5000FF37D6E72223CEF800304FF0FF30002A8F
:104B6000F1D00CF1FF31EDE79CF80050012600F187
:104B7000020CA8E7302D24D19CF8000000F0DF00E3
:104B8000582818D14FF010099CF801504B464FF0AF
:104B90000F0A0CF1020C6FF07048A9E79CF8003086
:104BA00003F0DF03582BEDD0082399464FF0070A96
:104BB0006FF060489CE799466FF070484FF00F0A1D
:104BC00096E74FF00F0A6FF07048994690E700BFE4
:104BD000C5D302089999991960E700BF30B583B031
:104BE0000D46044601920CF0D5F9019B2A46214658
:104BF00003B0BDE8304051E730B583B00D46044600
:104C000001920CF0C7F9019B2A46214603B0BDE88A
:104C1000304043E7F2B110B40A44441E002003E0E0
:104C2000914200F1010008D011F8013B04F8013F66
:104C3000002BF5D15DF8044B70471378002BF9D0A9
:104C40000130811A881812F8013F002BFAD15DF863
:104C5000044B70470B7810460A463BB10130411AAD
:104C6000881812F8013F002BFAD17047704700BF37
:104C70002DE9F04F8A46B1F90C10ADF5317D834630
:104C80008804099309D4DAF8783041F4005123F408
:104C90000053AAF80C10CAF87830174617F8012B01
:104CA0001392002A00F0E786DFF8A498039719F81A
:104CB0000270002317F00807CDE90A3308939846DD
:104CC000069340F0A380252A7DD1039802783E46C2
:104CD0003C46A2F12503411C532B6ED8DFE813F0AC
:104CE00072006D006D006D006D001C046D006D00A4
:104CF0006D006D006D00BC00BC00BC00BC00BC00C1
:104D0000BC00BC00BC00BC00BC006D006D006D00B0
:104D10006D006D006D006D006D006D006D00B703DE
:104D2000C7006D00C7006D006D006D006D00C80309
:104D30006D006D00D0036D006D006D006D006D00A5
:104D40006D006D006D0088036D006D00C0036D0087
:104D50006D006D006D006D006D006D001704B903EE
:104D6000C700C700C700E603EE036D006D00F50342
:104D70006D0001041906D9036D006D00DC036D00A0
:104D8000DF036D006D0088035146584605F022FA96
:104D9000002800F069843346079D099E002B00F02F
:104DA0002786069A002A00F0B386BAF80C3013F072
:104DB000400F18BF4FF0FF32069206980DF5317D77
:104DC000BDE8F08F0391DAF80430002B3DDDDAF80E
:104DD0000030039A197812F8012C9142EDD1DAF8DB
:104DE00004200133013ACAF8003008F10108CAF87A
:104DF0000420039B13F8012B03931392002ADCD0A9
:104E000019F8027017F008073FF45DAFDAF80420D4
:104E100012E0DAF800301A7819F8022012F0080FC0
:104E200003F10103E5D0DAF80420CAF80030013AB2
:104E300008F10108CAF80420002AEADC5146584665
:104E400005F0C8F90028E4D0D3E75146584605F0EC
:104E5000C1F90028BBD0A4E716F08F0FADD104EB49
:104E6000840402EB4404303C4278084631E7039165
:104E70000425DAF80430002B40F3C88272060FD5FF
:104E80006B1E032B00F2B985DFE813F00901C600A1
:104E9000450124005146584605F09CF9002880D170
:104EA000DAF80020137819F803301B07E8D5DAF890
:104EB0000430013B002B08F10108CAF8043002F16C
:104EC0000102E7DDCAF80020137819F803301B0748
:104ED000D6D5ECE7584603F067F8631E02680E92D9
:104EE000B3F5AE7F40F269836FF4AE72A3181093EE
:104EF00040F25D140023049358AD11930F93079370
:104F00000D9353460C95DA4646F4F066BB461F46B1
:104F100038680278A2F12B0CBCF14E0F50D8DFE8B4
:104F20001CF0C0014F00C0014F004F005902740037
:104F300074007400740074007400740074007400D1
:104F40004F004F004F004F004F004F004F00B9017E
:104F50004F004F004F003A0233024F004F00DE0176
:104F60004F004F004F004F00C6014F004F004F0051
:104F70004F004F00B2014F004F004F004F00AB01F8
:104F80004F004F004F004F004F004F004F00B9013E
:104F90004F004F004F003A0233024F004F00DE0136
:104FA0004F004F004F004F00C6014F004F004F0011
:104FB0004F004F00B2014F004F004F004F00AB01B8
:104FC0000E9B93F800C0944514D1B30512D5079BEE
:104FD0000D9326F4207605F8012B013C7A68013AFE
:104FE000002A08F101087A6040F3B4820130386089
:104FF000002C8DD13B465F46D3469A46079B002B3B
:1050000000F07F8126F480767BE1049B13EB0B0F8D
:10501000F0D126F4C076DEE7DAF800201378002C11
:1050200019F8033008BF4FF0FF34F10703F008030D
:1050300006F0100500F1CB82002D00F06C83002BF0
:105040007FF4D7AEDAF804300132013B012CCAE913
:10505000002308BF08F101083FF4CBAE01251A4632
:1050600013E0DAF800301A7819F80220160703F175
:10507000010312D4DAF80420CAF800300135013AED
:10508000AC42CAF8042000F0D484002AE9DC51467E
:10509000584605F09FF80028E3D0A844A9E6002C64
:1050A00008BF4FF0FF3406F01003F2070C9300F135
:1050B0007083DAF800200C99137818AFFB5C002994
:1050C00000F0E482002B3FF478AEDAF804300132CD
:1050D000013B012CCAE9002318BF1A4611D1DCE7B5
:1050E000DAF800301A78BA5C0133002AD5D0DAF841
:1050F0000420CAF800300135013AAC42CAF8042055
:10510000CBD0002AECDC5146584605F063F8002865
:10511000E6D0A8446DE6631EB3F5AE7F40F24A8246
:105120006FF4AE72A318079340F25D14002758ADD8
:105130005146C246B846089F0C9546F458660A6820
:105140001078A0F12B034D2B5FD8DFE813F06E0130
:105150005E006E015E005E00ED013D013D013D011E
:105160003D013D013D013D01670167015E005E00BB
:105170005E005E005E005E005E004E004E004E006F
:105180004E004E004E005E005E005E005E005E005F
:105190005E005E005E005E005E005E005E005E001F
:1051A0005E005E005E005E0074015E005E005E00F8
:1051B0005E005E005E005E005E004E004E004E002F
:1051C0004E004E004E005E005E005E005E005E001F
:1051D0005E005E005E005E005E005E005E005E00DF
:1051E0005E005E005E005E0074010A2F0DDD26F495
:1051F000386605F8010B4B68013B002B4B6040F310
:10520000B48101320A60013C99D108974746D046E3
:105210008A46F10507D50C9B9D4200F2D9830C9B71
:105220009D423FF4CAAD16F0100240F0AE81089BDB
:105230000A9C0C992A705846A047099BB20603F1B4
:10524000040400F19C81730700F16E8316F00102E3
:1052500040F09481B10740F19181BA4B0A9999428B
:105260005846089B0C9900F06A8403F0EFFF099BF5
:105270001B68C3E9000184E1BBF1070F7FF4BAAEFC
:105280004FF0080BA7E6BBF1060F7FF4B3AE4FF06B
:10529000070BA0E6049B012B7FF4ACAE0223049322
:1052A00099E631067FF5A6AE26F0800693E6049BCC
:1052B000002B40F07881079B2BB906F4E06CBCF51D
:1052C000E06F00F0B983BBF1010F03D0BBF1040F15
:1052D0007FF490AE0BF1010B5FFA8BFB7BE6BBF129
:1052E000000F40F05781079B002B40F0698106F4C6
:1052F000E06CBCF5E06F00F0A5833B465F46D3460B
:105300009A46049B013B012B40F2F3837B1E062B44
:1053100040F2C182F70513D5740500F1FE8315F83C
:10532000011C652905F1FF3408F1FF3702D045293A
:1053300040F0E5825246584604F00EFFB846254636
:1053400016F010027FF455AD06F4C063B3F5806F1C
:105350002A7000F036830F9B002B40F0F4825846F1
:105360000C990022FFF7B4FA099BF0078DED040BAE
:1053700003F1040440F1A6821B6883ED000B069B39
:1053800009940133069334E5BBF1020F7FF432AE8A
:105390004FF0030B1FE606F4A06CBCF5806F05D040
:1053A00073057FF527AE079B002BA6D0B10504D46B
:1053B000079B0D9911955B1A0F9326F4F066002355
:1053C00046F4C076079306E65F4B26F4386633F959
:1053D00017700EE7F3057FF518AE079B01330793AF
:1053E000109B26F08006002B40F09181013CF5E5F2
:1053F00046F40076534B0A9310230893DAF80430EE
:105400000391002B4FF003053FF738AD5146584646
:1054100004F0E0FE00283FF431ADC2E44A4B33F91A
:105420001770082F3FF7E3AEEFE633067FF5EDAEDA
:1054300026F08006DDE606F4C063B3F5007F7FF456
:10544000E4AE26F4007646F4A0661027D1E646F0D6
:1054500001063E4B0A930A2303910893032508E5AE
:1054600018A803F08BFC46F040060390012500E5E8
:1054700033077FF4A2AC427846F00206084628E4DF
:10548000304B0A93082346F0010603910893032545
:10549000EFE446F40876ADE703910225E9E4294BF1
:1054A0000A930A23039108930325E2E435077FF466
:1054B00084AC427846F0040608460AE4234B0A937B
:1054C0000023039108930325D3E432077FF475ACDE
:1054D00042786C2A00F0848246F001060846FFF705
:1054E000F8BBF20600F10182099C730754F8040B23
:1054F00000F12382F70700F1C182B50740F1BE82B7
:105500004246D317C0E900230994039171E446F0A1
:10551000400603910025ACE434437FF44EAC42785E
:1055200010260846FFF7D5BB33057FF562AE17B9E5
:1055300046F400760827730540F1A38126F4B0668F
:1055400057E600BFD94B000888D60208959300089B
:10555000C5D302083946504604F03CFE00287FF4CB
:1055600049AD002C7FF4D4AC44E55846049104F0D6
:1055700031FE049900283FF446AE46E6099B1B68BD
:105580001860069B0994013306930C9BED1A2F4477
:10559000B8442EE4BBF1030F3FF49CAEBBF1050F02
:1055A0003FF498AE26E5049B022B7FF48CAE0323D8
:1055B000049310E500230793B8E50023109399E4C2
:1055C0003B4626F480765F46D3469A4699E6002D00
:1055D00040F08E81099E56F8042B0492002B40F077
:1055E000E78107950996FBF715FF0027B842254686
:1055F0003FF4D7ABDAE9002312F8011B013BCAE9FB
:1056000000230B9B58A8032BC15507F1010616ACCC
:1056100002D12368042B04D0082200212046FCF785
:105620008FFC58AA049900943346584602F0C4FCF3
:10563000421C0B903FF4B5AB002840F00982049A5D
:10564000106002F0A7FC002840F02A82B044013D1F
:10565000079E002E40F03682049B04330493DAF850
:105660000430002B7FF790ABDAF800301B7819F884
:1056700003301F0700F1BA81002D00F0B781FBF75E
:10568000C9FE3746B842B5D1FFF78BBB099951F82F
:10569000045B0491002B3FF490ABDAF80430511C0A
:1056A000013BCAE900132E46137806F8013B012C92
:1056B00020D02C4411E0DAF800301A78BA5C591C7A
:1056C000C2B1DAF80420CAF80010013ACAF804207E
:1056D0001B7806F8013BA6420CD0DAF80430002B08
:1056E000E9DC5146584604F075FD0028E3D0B54288
:1056F0003FF457AB751B3FF460AB069A01320023B1
:105700000692049A0992A8443370FFF772BB109B6B
:10571000013B109362E4099E56F8045B002B40F0B5
:105720001282DAF80430511C013BCAE900132F46FB
:10573000137807F8013B012C00F0FE812C4414E0A3
:10574000DAF800301A7819F80220100703F1010185
:1057500015D4DAF80420CAF80010013ACAF8042077
:105760001B7807F8013BA74209D0DAF80430002B78
:10577000E6DC5146584604F02DFD0028E0D07D1BA4
:10578000A844069A09960023013206923B70FFF75F
:1057900030BB002B40F0C580099E56F8043B0996AB
:1057A0001F46049400260B9CCDF83480079734E004
:1057B0003860074616AB1846082200210B93FCF709
:1057C000BFFBB4480B9BD0F8E0003A4612A907464D
:1057D0005846B847012800F0E380002218AB9B5CD4
:1057E000002B00F071810D9B032C43440D9300F0BE
:1057F000DA80049B013B04930C9B002B40F0CE808D
:10580000079A043207921E46DAF80430002B40F360
:10581000AD80049B002B00F03781FBF7FBFDB0420D
:105820003FF4BFAADAE9002358A812F8011B8155FA
:10583000013B032CCAE9002306F1010814AD02D193
:105840002B68042B04D0082200212846FCF778FBA3
:10585000079F0095434658AA3946584602F0ACFBCC
:10586000431C04463FF49DAA0028A1D0A01C08BFF9
:105870004646C9D0079B1B681F4601339AD13A465A
:10588000ACE7079B26F4607613B1013B0793013424
:1058900008F10108AFE4022F40F25D81032F3FF4CD
:1058A00039AD043FFFB2FC432C4415F8011D5246AC
:1058B000584604F051FCAC42F7D108F1FF38A8EB90
:1058C000070827E5099B1D68B30731D4DDE904010A
:1058D00002460B4608F020FB002840F03681DDE947
:1058E000040108F077FB286049E50391FFF781BACE
:1058F000002B7FF47EAA13AB099E049371E65246F7
:10590000584604F029FCA8F1020715F8021CAC1E49
:1059100010E5614B0A930823039108930325FFF7D1
:10592000A8BA13AB1F463CE7099B1B68188028E602
:105930009DED047B85ED007B21E5A0F800800994B6
:105940000391FFF756BA119D0A23691C584603F0CC
:1059500021FD0F9BC21A0DF2B3239D4228BF0DF209
:10596000B2254E49284603F053FBF8E45146584609
:1059700004F030FC00283FF44CAFDDF83480079F82
:105980000B94002E7FF40DAA0C9B002B7FF431AA00
:105990003B60069B01330693FFF72BBA002633E7E3
:1059A0009DF848201AE72B68042B7FF422AF23E7E9
:1059B000069A099601320692049A00231360FFF7B3
:1059C00018BA0D9B07998B42A3EB0102C3D1C6E421
:1059D00015F8011C5246584604F0BEFB013D1EE47A
:1059E000827846F002060230FFF773B9099E079DE0
:1059F000002DDDD00996FFF7FCB9012C38BF01243A
:105A000006F0100716F00106254640F0B580002F7D
:105A100000F005813446DAE900239D4202EB0306DB
:105A20005146584600F30F815B1B2A44CAE9002304
:105A30002C44A044FFF7DDB9012326F4F06604935B
:105A4000FFF7C9BA26F4F0664FF0010BFFF7C3BAAF
:105A50000B9B02333FF403AE049B186802F09AFAE2
:105A6000F0B90B9B032BB0447FF4F1AD2368042BFA
:105A70007FF4EDADECE50692FFF79FB9C0F800802A
:105A800009940391FFF7B5B9DDF83480079F0B94B3
:105A90007AE700BFCCD40208D94B00084CF70208C3
:105AA0003346079D099E002BA2D058AB1F4439787E
:105AB0005246584604F050FB58ABBB4207F1FF3743
:105AC000F5D195E70026CAE54546079FDDF8348005
:105AD0000B94002D3FF458AF58AB1E44317852461A
