:020000040800F2
:100000000002001035660108B9B00108D1B001083E
:1000100069B1010851B201084DB3010800000000A8
:10002000000000000000000000000000E1CB01081B
:1000300035B401080000000059B40108A5CB01083F
:10004000D5650108D5650108D5650108D5650108A4
:10005000D5650108D5650108D5650108D565010894
:10006000D5650108D5650108D5650108D565010884
:10007000F1B70108D5650108B5B70108D5650108D4
:10008000D5650108D5650108D5650108D565010864
:10009000D5650108D5650108D5650108D565010854
:1000A000D5650108D5650108D5650108D565010844
:1000B000D5650108D5650108D5650108D565010834
:1000C000D5650108D5650108D5650108D565010824
:1000D000D565010875B60108D1B601082DB701082C
:1000E000D5650108D5650108D5650108D565010804
:1000F000D5650108D5650108D5650108D5650108F4
:10010000D565010835D00108D5650108D565010818
:10011000D5650108D5650108D5650108D5650108D3
:10012000D5650108D5650108D5650108F9CF010835
:10013000D5650108D5650108D5650108D5650108B3
:10014000D5650108D5650108D5650108D5650108A3
:10015000D5650108D5650108D5650108D565010893
:10016000D5650108D5650108D5650108D565010883
:10017000D5650108D5650108D5650108D565010873
:10018000D5650108D565010808B5062002F03CF8E0
:1001900001201AF055F900BF00B587B0144604934A
:1001A00005900E461AF09AF9DDE90423C06844B1BF
:1001B00005490096CDE90114044900F005FBFFF75D
:1001C000E3FF03490C46F4E790240408A024040844
:1001D0009C24040808B513460022FFF7DDFF00BF8A
:1001E00010B40C4613460146224602205DF8044B2B
:1001F0001AF018B908B51AF071F908BDF0B50C4637
:1002000083B000295AD0054610B18369002B59D01C
:1002100001A9012016F0F2FCA36FDE073BD5B4F96B
:100220000C30002B46D004F160072146284600F030
:1002300069F8236B064633B1216A2846984700289F
:10024000B8BF4FF0FF36A3891A0646D4616B41B19F
:1002500004F14403994202D0284600F015FC002323
:100260006363A16C21B1284600F00EFC0023A36457
:1002700000F064FAA36F0022DB07A28132D5384672
:1002800016F016FC00F060FA019801A916F0B6FC11
:10029000304603B0F0BDA389980504F16007C4D4CB
:1002A000384616F016FCB4F90C30002BBDD1A36F04
:1002B000D9070AD5019801A916F0A0FC00263046FE
:1002C00003B0F0BD00F09CF9A2E7384616F023FC1D
:1002D000019801A916F092FCF0E72169284600F088
:1002E000D3FBB3E7384616F016FCC8E700B583B079
:1002F00001901AF0F3F8019903B05DF804EBFFF7F1
:100300007DBF00BFB1F90C202DE9F0410D4611076A
:10031000804648D46B6842F40062002BAA815EDDFF
:10032000EC6A002C58D00023D8F80060296AC8F87D
:10033000003093B212F4805255D101234046A047B9
:10034000431C69D0AB89EC6A296A5F0705D56A68E6
:100350006B6B801A0BB12B6CC01A0246002340460F
:10036000A047441C49D1D8F80020B5F90C30002A28
:100370005FD01D2A01D0162A67D12A690021C5E95C
:10038000002123F40063AB81696BC8F8006019B3E6
:1003900005F14403994202D0404600F075FB00206D
:1003A0006863BDE8F0812F69B7B193B22E682F6002
:1003B00099070CBF6B690023F61BAB600AE0AC6ABF
:1003C000296A33463A464046A047041EA6EB040677
:1003D00027440ADD002EF2DC0020BDE8F0812B6C02
:1003E000002B9DDCF8E7A86DAFE7AB8943F0400335
:1003F000AB814FF0FF30BDE8F081B5F90C302A69D0
:100400002A6023F4006300226A60DA04AB81BBD562
:10041000C117C5E91601B7E7D8F80030002B91D015
:100420001D2B0FD0162B0DD0AB8943F04003AB81B1
:10043000D3E723F400632969AB81DB04C5E900122B
:10044000A2D5E5E7C8F80060C6E743F04003AB81FA
:10045000C3E700BF30B50B6983B03BB10C4605461E
:1004600008B1836913B3B4F90C301BB900252846D1
:1004700003B030BD01A9012016F0C0FBA36FD8075F
:1004800002D4A389990518D528462146FFF73AFFDB
:10049000A36FDA07054602D4A3899B0512D50198FC
:1004A00001A916F0ABFB284603B030BD00F0A8F858
:1004B000B4F90C30002BD9D0DCE704F1600016F061
:1004C00008FBE1E704F1600016F025FBE7E700BF59
:1004D00040B110B504461AF001F82146BDE81040BD
:1004E000FFF7B8BF024B0349186800F05FBE00BFBA
:1004F000D00804085504000838B500250446818159
:10050000C281C0E90055C0E90455856085678561F1
:1005100029460822703001F013FD07480749084AB0
:10052000084B2462C4E91855C4E91A55C4E9090105
:10053000C4E90B2338BD00BF512500088125000800
:10054000C9250008092600080D4B4168994210B5DD
:10055000044601D0FFF752FEA1680A4B994202D02F
:100560002046FFF74BFEE168074B994202D0204638
:10057000FFF744FE20460549BDE8104000F016BED6
:10058000E011001060120010E0120010FD010008E0
:1005900008B5836FDA0702D483899B0501D5002053
:1005A00008BD603016F095FA002008BD08B5836FCD
:1005B000DA0702D483899B0501D5002008BD60308D
:1005C00016F0A9FA002008BD70B54D1EED010E46CB
:1005D00005F1900101F016F8044640B100211030F9
:1005E000666005F180022160A06001F0A9FC204650
:1005F00070BD00BF014B1868FFF7A6BFD008040804
:1006000070B50446194816F064FAA369BBB91849D5
:1006100018480968184A2262A142026A6364C4E960
:100620000F3300F1800608BF012300F5807508BF75
:100630008B61C4E90265606032B10123A361BDE84A
:1006400070400A4816F067BA0323C1E9103004214C
:10065000FFF752FF304601220821FFF74DFF2846E1
:1006600002221221FFF748FFE7E700BF70080010E1
:10067000D0080408E011001049050008F0B583B067
:1006800001A90746012016F0B9FA294816F021FA07
:10069000284B1E68B369002B33D03C36D6E90134B1
:1006A000013B04D529E05A1C04F1800425D0B4F99B
:1006B0000C50013B002DF6D11F4BE360C4E91855E7
:1006C000C4E91A551A48A56716F025FA01A9019838
:1006D00016F094FAC4E90155C4E904552560A561F2
:1006E0000822294604F1700001F02AFCC4E90D55E6
:1006F000C4E91255204603B0F0BD34682CB126463B
:10070000CCE73046FFF77CFFC7E704213846FFF708
:100710005BFF044630600028F1D1054816F0FBF974
:10072000019801A916F06AFA0C233B60E2E700BFCA
:1007300080080010D00804080100FFFF014816F0EF
:10074000C8B900BF80080010014816F0E4B900BF26
:1007500080080010014816F0BCB900BF70080010F6
:10076000014816F0D8B900BF7008001008B5054858
:1007700016F0AFF919F0B2FEBDE80840024900F0EA
:10078000F5BC00BF800800109105000808B519F0FD
:10079000A5FE044900F0EAFCBDE80840024816F056
:1007A000BAB900BFAD050008800800100CB400B550
:1007B00083B004AB53F8042B019305F0C3FF03B0DF
:1007C0005DF804EB02B070470EB400B584B005AB21
:1007D000009053F8042B0192039319F07FFEDDE99A
:1007E0000012039B05F0AEFF04B05DF804EB03B00C
:1007F000704700BF2DE9F04F85B002FB03F8CDE94B
:1008000000320E9CB8F1000F56D00D46064618B1C6
:100810008369002B00F0BE8003A9012016F0EEF9D9
:10082000A36F13F0010FB4F90C3098B202D19905FF
:1008300040F1B380820407D4A26F43F4005322F442
:100840000052A38198B2A2676768002F38DB830744
:100850002168BA463BD4C24610E001F029FA236869
:100860003B4423602146304601F06AFD3D44AAEB3B
:10087000070300287AD1D4E900179A46BA453A46C8
:100880002846EAD8524601F013FAD4E90032A2EB26
:100890000A025344C4E90032A36FDA0706D4A389DD
:1008A0009B0503D404F1600016F035F9039803A901
:1008B00016F0A4F9DDF80080404605B0BDE8F08FE1
:1008C00000239A4663601F4683072168C3D5C2454B
:1008D00028BFC2465246284601F0EAF9D4E900236F
:1008E000616B5244A3EB0A03C4E90023A8EB0A0797
:1008F00051B1002FD0D004F14403994202D03046C8
:1009000000F0C2F8002363635544B14600E01F467F
:1009100021464846002FBFD0D4F810B02668D4F83E
:1009200014A025612560676101F00AFD62682660F8
:1009300000236360C4E904BA1544BB1A0028E6D05A
:10094000A36FDE0702D4A3899D0536D503980092D4
:1009500003A916F053F9009A019B9044A8EB0707EE
:10096000B7FBF3F8404605B0BDE8F08FA36FD8079A
:1009700002D4A38999051BD5039803A916F03EF963
:10098000B844019BA8EB0A08B8FBF3F8404605B051
:10099000BDE8F08FFFF734FE3EE704F1600016F08B
:1009A00098F8B4F90C3098B282043FF54DAF43E7A4
:1009B00004F1600016F0AFF8DEE704F16000009289
:1009C00016F0A9F8009AC1E7F0B583B00D461646B7
:1009D0001F46044619F082FD009733462A462146F9
:1009E000FFF708FF03B0F0BDF8B5244F0C460646EC
:1009F00019F068FDBB685D68C4F57B71033125F0B3
:100A000003054B1923F47F7323F00303A3F58064DC
:100A1000B4F5806F07DB0021304619F019FDBB6883
:100A20002B44984204D0304619F052FD0020F8BD06
:100A30006142304619F00CFD01300DD0104AB96802
:100A400013682D1B45F0010530461B1B4D601360DC
:100A500019F03EFD0120F8BD0021304619F0F8FCE8
:100A6000BA68831A0F2BDEDD064C0549246843F073
:100A70000103001B53600860D5E700BF7802001037
:100A80009408001080060010002963D0F8B50C46C9
:100A9000064619F017FD54F8045C7D4925F0010065
:100AA000A4F1080C0CEB00038F685A689F4222F0F7
:100AB000030200F08E80ED075A6003EB020736D484
:100AC00054F808EC7C68ACEB0E0C01F10807DCF87C
:100AD0000850BD42704404F0010468D0DCF80CE01A
:100AE000C5F80CE0CEF80850002C00F0998040F0DA
:100AF0000102CCF804201860B0F5007F33D2C3089F
:100B00004C680133420901209040204301EBC302AD
:100B100051F833404860083ACCE9024241F833C00A
:100B2000C4F80CC03046BDE8F84019F0D1BC7D686F
:100B3000ED0710D4104401F108079A68BA4240F05A
:100B4000010475D0DB68D3609A60CCF804404CF89F
:100B50000000D1E7704740F00102B0F5007F44F893
:100B6000042C1860CBD3B0F5206F4FEA50234CD241
:100B7000830903F13905ED0003F138024B594C1993
:100B8000083C9C425DD05A6822F00302824202D99E
:100B90009B689C42F7D1DC68CCE902343046C4F84B
:100BA00008C0C3F80CC0BDE8F84019F091BC002C97
:100BB00068D1D3E90231024442F00100D9608B6070
:100BC000CCF8040030464CF80220BDE8F84019F09B
:100BD0007FBCEF07024408D454F8083CACEB030C8C
:100BE0001A44DCE90203C36098602A4B1B6842F098
:100BF00001009342CCF80400C1F808C092D8264BFB
:100C000030461968FFF7F0FE8CE7142B0AD9542BF5
:100C10001FD8030B03F16F05ED0003F16E02ADE782
:100C200010448AE703F15C05ED0003F15B02A5E7E0
:100C3000C1E904CCCCE90277CCF804404CF80000C0
:100C400070E748689210012505FA02F202434A60F3
:100C5000A2E7B3F5AA7F06D8C30B03F17805ED0030
:100C600003F177028AE740F25452934206D8830C8C
:100C700003F17D05ED0003F17C027FE74FF47E7503
:100C80007E227BE740F00102CCF80420186049E79F
:100C900078020010840600109008001000B583B0A0
:100CA0000093D31700F014F803B05DF804FB00BF05
:100CB00030B585B00C461546039019F00FFC03992A
:100CC00000952246E31700F003F805B030BD00BFE1
:100CD0002DE9F04F9DB09046269F0C46054608B181
:100CE00083695BB303A9012015F088FFA36F13F09C
:100CF000010FA38902D19E0540F1D98003F48473CA
:100D0000B3F5847F00F08B80D4F82CA0BAF1000FEB
:100D100000F08F80012F69D037F002061CD0A36F3E
:100D20001622D8072A600FD5039803A915F066FF8D
:100D30004FF0FF3630461DB0BDE8F08FFFF760FC86
:100D4000D0E7A36FD807EFD4A3899905ECD404F1B9
:100D5000600015F0E0FEE7E722693346002A00F064
:100D6000BF80B4F90C2040F61A010A4290B208D1B3
:100D700041057ED4A84901938A4561D042F40062BE
:100D8000A28121462846FFF765FB06460028D8D1F8
:100D9000216A3B4642462846D0470130D1D0616B9C
:100DA00041B104F14403994202D02846FFF76CFE9A
:100DB00000236363A3892269226023F40263002174
:100DC000A3816160082204F1700001F0B9F8A36FFB
:100DD000DA0703D4A3899B0540F1F380039803A9A4
:100DE00015F00CFF30461DB0BDE8F08F21462846B7
:100DF000FFF730FBA38913F480525ED05907A66D2C
:100E0000226965D5D4F804C0636BA6EB0C060BB160
:100E1000206C361A18EB0608012300279EE72146AE
:100E20002846FFF717FBD4F82CA0BAF1000F7FF487
:100E300071AFA36F1D222A60DD073FF575AF83E711
:100E4000B4F90E10002999DB04AA284619F047FCD2
:100E5000019B002840F0DD800699B4F90C2001F4D4
:100E60007041B1F5004F89D11799216542F4806234
:100E7000A281002F40F09480C346002B37D1A28975
:100E8000D20400F19C801A46216A01232846D047EB
:100E9000431C3FF476AFD4F804C0616BA0EB0C06A2
:100EA0006346002900F09880206C361A25E004F192
:100EB000600015F00EFEA38920E7216A3B46284614
:100EC000D0470646701C82D0A3892269590799D45D
:100ED0001F079FD52368002B9CD09B1A1E4499E7BF
:100EE00021462846019300F0E5FA019B39E7616B42
:100EF000002970D0D4F804C0206CE36B22696644EA
:100F00009B1AF61A0344B34502DBF01858456AD819
:100F1000226D216A524202EA0B063246002328461D
:100F2000D04701303FF42DAF2369616B236000236C
:100F3000636041B104F14403994202D02846FFF7AF
:100F4000A3FD00236363A389BBEB060B23F02003FF
:100F5000A38110D02146284601F0F2F900287FF441
:100F600010AF63685B45FFF40CAF2668A3EB0B037F
:100F70005E44C4E900630822002104F1700000F01F
:100F8000DFFFA36FDE0702D4A3899D051ED503985A
:100F900003A915F033FE002630461DB0BDE8F08FE2
:100FA000B4F90E10019304AA284619F098FB002802
:100FB0007FF4E7AE0A9A019B02EB080B5DE7A06D98
:100FC00069E704F1600015F0A6FD07E704F1600091
:100FD00015F0A1FDDBE7636821682269891A761A9A
:100FE0000B4400218FE7ABEB060B5A44A3EB0B033A
:100FF000C4E9002341B104F14403994202D02846D8
:10100000FFF742FD00236363A38923F02003A3813C
:10101000B1E7B4F90C20B1E6C925000810B584B0D9
:10102000CDE90220069C019319F058FADDE901325E
:101030000399069404B0BDE81040FFF749BE00BF15
:1010400008B500F00DF808BD00B583B0019019F0A7
:1010500045FA019900F004F803B05DF804FB00BF05
:1010600070B50C4682B0054610B18369002B3DD0A7
:1010700001A9012015F0C2FDA36FDE0702D4A389E8
:10108000980543D5E66A002E4AD0A38903F00C02E6
:10109000082A2ED013F480521CD128460123216A3D
:1010A000B047431C05464CD0A389580715D5616845
:1010B000626B6D1A0AB1226CAD1AA26FD20701D40D
:1010C0009B0528D501A9019815F098FD2846E91738
:1010D00002B070BD5807A56DE9D41907EDD5226897
:1010E000002AEAD02169521A1544E6E7FFF788FA88
:1010F000BEE72268002ACDD02169521A002AC9DD34
:10110000DA05C7D5284602230022C8E704F16000AB
:1011100015F0DFFCB6E704F1600015F0FCFCD1E748
:10112000A36F1D22D9072A6002D4A3899D050CD57F
:1011300001A9019815F062FD4FF0FF304FF0FF312B
:10114000C6E7A36FDE07F3D4EFE704F1600015F004
:10115000E2FCEDE700B583B0019019F0BFF9019909
:1011600003B05DF804EBFFF77BBF00BF2DE9F04152
:1011700000F13C0788460026D7E90154013D0FD411
:10118000A389012B05F1FF3506D9B4F90E300133DF
:1011900002D02046C04706436B1C04F18004EFD107
:1011A0003F68002FE8D13046BDE8F0812DE9F843D3
:1011B0000746884600F13C064FF00009D6E9015485
:1011C000013D11D4A389012B05F1FF3508D9B4F9EC
:1011D0000E30013304D021463846C04749EA0009A1
:1011E0006B1C04F18004EDD13668002EE6D1484630
:1011F000BDE8F8832DE9F04186B002FB03F7904685
:101200001D4601AA0123CDE90117CDE903230C9C5A
:101210000597064610B18369002B31D0694601203D
:1012200015F0ECFCA36F13F0010FB4F90C309AB277
:1012300001D1990538D5920406D4A26F43F4005326
:1012400022F40052A381A267304603AA214608F087
:10125000F7FEA36FB8B1DA070AD50098694615F012
:10126000CDFC059D7F1BB7FBF8F006B0BDE8F08113
:10127000A3899B05F1D404F1600015F04CFCECE768
:10128000FFF7BEF9CAE7D80706D4A389990503D4A6
:1012900004F1600015F03FFC0098694615F0AEFCC3
:1012A000284606B0BDE8F08104F1600015F011FC9D
:1012B000B4F90C309AB2BEE7F0B583B00D461646CD
:1012C0001F46044619F00AF9009733462A4621467C
:1012D000FFF790FF03B0F0BD416800F009B800BF10
:1012E00008B519F0FBF8BDE80840416800F000B807
:1012F00030B50C4683B0054608B18369FBB101A93E
:10130000012015F07BFCA36FD80702D4A3899905AF
:1013100023D56368013B002B636013DB23685A1CF1
:1013200022601D78A36FDA0702D4A3899B050FD52D
:10133000019801A915F062FC284603B030BDFFF703
:101340005FF9DCE72846214601F086F80546E9E723
:1013500004F1600015F0DFFBEAE704F1600015F02E
:10136000B8FBD6E730B583B0044619F0B7F80546A8
:1013700008B18369FBB101A9012015F03FFCA36FFF
:10138000D80702D4A389990523D56368013B002BB4
:10139000636013DB23685A1C22601D78A36FDA0791
:1013A00002D4A3899B050FD5019801A915F026FC4D
:1013B000284603B030BDFFF723F9DCE72846214675
:1013C00001F04AF80546E9E704F1600015F0A3FBD7
:1013D000EAE704F1600015F07CFBD6E742B110B5F6
:1013E0000B491046144601F07FF918B9094810BDA1
:1013F000084870470749204601F076F90028F5D0E3
:101400000549204601F070F90028EFD0002010BDFA
:10141000D02404082C1804089C24040801207047D8
:1014200010B582B00446019119F058F8019A21468E
:1014300002B0BDE81040FFF7D1BF00BF70B50C4649
:10144000B1F90E10002998B016461D461BDB6A46FE
:1014500019F045F9002816DB029B139A03F4704338
:10146000A3F50051B1FA81F14909002A29601ADD7A
:10147000B3F5004F0CBF4FF480604FF40060326052
:10148000226518B070BDA189002311F080002B6087
:1014900004D040221846326018B070BD4FF48073FB
:1014A000336018B070BD4FF480734FF40060336048
:1014B00018B070BD70B58B899D0782B00C4607D5FA
:1014C00001F147030122C1E904320B6002B070BD93
:1014D00001AB6A460646FFF7B1FF00990546304664
:1014E00000F090F880B1B4F90C20174B33620199E9
:1014F000206042F08003009AA381C4E9040299B9F4
:101500002B43A38102B070BDB4F90C309A05DDD431
:1015100023F0030304F1470243F002030121C4E96D
:101520000421A3812260D1E7B4F90E10304619F0EE
:101530000BF910B9B4F90C30E2E7A28922F00302EA
:1015400042F0010213B2DBE74905000870B4124C07
:1015500004F5806554F8083F5E6826F003060F2EF8
:101560003146D4BF00200120E368A34208D05A6866
:10157000DB6822F00302A34200F101001144F6D11E
:101580000834A542F0D1054B1A685860521AC3E9D5
:101590000816DA6170BC70477802001094080010D9
:1015A000F8B50B4D064608460F4618F08BFFFFF7BF
:1015B000CDFF0FCD34460FC40FCD0FC495E8030007
:1015C00084E80300384618F083FF3046F8BD00BFBA
:1015D0009408001000B583B0019018F07FFF0199C6
:1015E00003B05DF804EB00F00DB800BF00B583B0A8
:1015F000019018F073FF019903B05DF804EBFFF759
:1016000043BA00BF2DE9F04F01F10B05162D83B051
:10161000064623D8102900F2A78018F053FF1025A2
:1016200002201823CD4F3B44A3F108025C6894428A
:1016300000F0A780636823F003032344D4E9025138
:101640005A68E96042F0010230468D605A6018F035
:101650003FFF0834204603B0BDE8F08F35F00705A2
:1016600000F18280A9427FD818F02CFFB5F5FC7FED
:10167000C0F0AC816B0A7ED0042B00F27581AB09FF
:1016800003F1390003F1380CC300B44F3B44A3F11C
:1016900008015C68A14206D10CE0002A80F22A8190
:1016A000E468A14206D0636823F003035A1B0F2AA3
:1016B000F3DD60463C69DFF8A88244456CD062687F
:1016C00022F00302531B0F2B00F38E81002BC7E97E
:1016D000048880F27F81B2F5007F80F01981D10803
:1016E00001315209012393407A6857F831C0C4F898
:1016F00008C007EBC10E1343AEF10802E2607B6045
:1017000047F83140CCF80C4082104FF0010C0CFA35
:1017100002FC9C4548D81CEA030F08D120F00300C6
:101720004FEA4C0C1CEA030F00F10400F8D007EB61
:10173000C00AD6468146DEF80C300BE0596821F02D
:1017400003014A1B0F2A1C46DB6800F31981002A9B
:1017500080F22F819E45F1D109F1010919F0030FA3
:101760000EF1080EE7D167E10C2333600024204618
:1017700003B0BDE8F08F4FF4007340204FF03F0CF2
:1017800083E7DC68A34208BF02307FF453AF3C69B3
:10179000DFF8CC81444592D17B6882104FF0010C78
:1017A0000CFA02FC9C45B6D9BC68636823F00309B7
:1017B0004D4504D8A9EB05030F2B00F38B80DFF810
:1017C000A4A1D7F80824DAF8003001322B441BBF5B
:1017D00003F20F4828F47F7803F1100828F003087B
:1017E0004146304618F034FE411C04EB090B02461A
:1017F00000F01481834500F20F81DAF804104144AF
:10180000CAF804100B4600F06581D7F808140131BE
:101810001BBFA2EB0B0B5B44C7F80824CAF80430CB
:1018200012F0070300F02C81C3F108010A44904430
:10183000C3F58161A1EB0801C1F3090B594630469C
:101840000192009318F004FE421CDDE9003200F022
:101850006581801A00EB0B08DAF80400BA6048F0E2
:1018600001030BEB0001BC425360CAF8041000F006
:101870003C81B9F10F0F40F23A816368A9F10C0085
:1018800020F0070003F0010304EB000C03434FF0CA
:10189000050E0F286360CCE901EE00F24681536823
:1018A0001446DAF82C208A42DAF8302038BFCAF819
:1018B0002C108A4238BFCAF8301023F0030845457F
:1018C000A8EB050301D80F2B04DC304618F000FE0E
:1018D00000244CE7621943F0010345F001056560FF
:1018E0003046BA60536018F0F3FD0834204603B068
:1018F000BDE8F08F2344E1685A68A56842F0010210
:10190000E96030468D605A6018F0E2FD08342EE739
:10191000B2F5206F4FEA522378D3142B00F2C28025
:1019200003F15C01C9005B3307EB010C7958ACF1A2
:10193000080C8C4500F09B804B6823F00303934216
:1019400002D989688C45F7D1D1F80CC07B68C4E90D
:10195000021CCCF80840CC60D6E600BF780200102C
:101960008002001090080010142B5AD9542B00F25A
:10197000A1802B0B03F16F0003F16E0CC30084E612
:10198000D4F808E004EB050C45F00105656042F071
:101990000105CEF80C303046C3F808E0C7E904CCA6
:1019A000CCE90288CCF80450625018F091FD08345C
:1019B000DDE6214454F8085F4A6842F001024A60BB
:1019C0003046EB609D6018F083FDD0E6E80805F135
:1019D000080327E622443046536843F0010353606E
:1019E000083418F075FDC2E6611945F0010C43F0AA
:1019F0000105C4F804C03046C7E90411C1E90288F2
:101A00004D60A35018F064FD0834B0E6930903F16B
:101A10003901C900383387E7BC4255D0BC686368D8
:101A20004BE703F15C0003F15B0CC3002DE65AF8B1
:101A30000839534540F0978010F0030F00F1FF3054
:101A4000F5D17B6823EA0C037B604FEA4C0C9C4584
:101A50003FF6AAAEBCF1000F04D1A5E64FEA4C0C4C
:101A600009F104091CEA030FF8D048465FE69A1012
:101A70004FF0010E7B680EFA02F213437B6066E7BB
:101A800002EB08014942C1F3090B59463046019364
:101A9000009218F0DDFC431CDDE900237FF4D9AE91
:101AA0009B46D9E6542B25D8130B03F16F01C900CF
:101AB0006E3339E7B3F5AA7F25D8EB0B03F1780035
:101AC00003F1770CC300E0E5DAF804304344CAF8C8
:101AD00004309AE6CBF3090000287FF496AEBC6888
:101AE000C84448F001036360DBE61446D9E60123ED
:101AF0005360EAE6B3F5AA7F21D8D30B03F178014E
:101B0000C900773310E740F25452934221D8AB0C0E
:101B100003F17D0003F17C0CC300B6E5083B98445B
:101B2000A8EB02084FF0000B96E604F108013046DE
:101B3000FEF7AAFFBC68DAF804106368B1E640F269
:101B400054518B420BD8930C03F17D01C9007C33B7
:101B5000EAE64FF47E737F204FF07E0C95E54FF45C
:101B60007E717E23E0E67B686FE700BF10B4034C14
:101B7000D4F8E440A4465DF8044B6047D408040858
:101B800082B049B15AB16BB113780B601278101E54
:101B900018BF012002B0704701A9002AF3D11046F6
:101BA00002B070476FF00100F4E700BF00000000D2
:101BB00001F0FF01102A2BDB10F0070F08D010F8FE
:101BC000013B013A8B422DD010F0070F42B3F6D102
:101BD000F0B441EA012141EA014122F007047FF01B
:101BE00000070023F0E80256083C85EA010586EA72
:101BF000010685FA47F5A3FA87F586FA47F6A5FAAE
:101C000087F68EB9EED1F0BC01F0FF0102F00702B9
:101C100032B110F8013B013A83EA010313B1F8D164
:101C20000020704701387047002D06BF3546033845
:101C3000073815F0010F07D1013015F4807F02BF7E
:101C4000013015F4C03F0130F0BC0138704700BFCF
:101C5000032A70B412D940EA0105AD0704460B46C9
:101C60001ED11946204653F8045B54F8046BAE426B
:101C700016D1043A032A20461946F2D8561EA2B1BC
:101C80000139441E01E0C3180CD014F8015F11F8AB
:101C9000012F9542A6EB0403F5D0A81A70BC70473B
:101CA000561EEDE7184670BC70471046F6E700BFB9
:101CB000844641EA000313F003036DD1403A41D357
:101CC00051F8043B40F8043B51F8043B40F8043B16
:101CD00051F8043B40F8043B51F8043B40F8043B06
:101CE00051F8043B40F8043B51F8043B40F8043BF6
:101CF00051F8043B40F8043B51F8043B40F8043BE6
:101D000051F8043B40F8043B51F8043B40F8043BD5
:101D100051F8043B40F8043B51F8043B40F8043BC5
:101D200051F8043B40F8043B51F8043B40F8043BB5
:101D300051F8043B40F8043B51F8043B40F8043BA5
:101D4000403ABDD2303211D351F8043B40F8043B45
:101D500051F8043B40F8043B51F8043B40F8043B85
:101D600051F8043B40F8043B103AEDD20C3205D355
:101D700051F8043B40F8043B043AF9D2043208D04D
:101D8000D2071CBF11F8013B00F8013B01D30B88BF
:101D900003806046704700BF082A13D38B078DD09D
:101DA00010F003038AD0C3F10403D21ADB071CBF6F
:101DB00011F8013B00F8013B80D331F8023B20F8D9
:101DC000023B7BE7043AD9D3013A11F8013B00F812
:101DD000013BF9D20B7803704B7843708B7883709A
:101DE000604670478842F0B40DD98B1883420AD9F7
:101DF000841832B1224613F8014D02F8014D994280
:101E0000F9D1F0BC70470F2A0ED80346541E002AA1
:101E1000F7D001340C44013B11F8012B03F8012FDA
:101E2000A142F9D1F0BC704740EA01039B073FD1C2
:101E3000A2F1100323F00F0401F1200727441B092E
:101E400001F1100400F1100554F8106C45F8106C05
:101E500054F80C6C45F80C6C54F8086C45F8086C98
:101E600054F8046C45F8046C1034BC4205F11005BC
:101E7000EAD1013312F00C0F01EB031102F00F0451
:101E800000EB031317D0043C24F0030CA5089C447A
:101E90001C1F0E4656F8047B44F8047F6445F9D1B4
:101EA0006C1C03EB840301EB840102F00302ADE739
:101EB000541E0346ADE72246A8E700BF70B483185E
:101EC000551E44199807CEB211D06AB1234603E0DB
:101ED00082070DD0013D07D3184613F80129B242FD
:101EE0001C46F5D170BC7047002070BC7047154689
:101EF000032D0CD815B32346651B01E0AB42F3D08C
:101F0000184613F80129B242F8D170BC7047090293
:101F100089B2314341EA0141033C2346043C1A683B
:101F20004A40A2F1013020EA020212F0803F03D1C0
:101F3000043D032D2346F0D8DC1CDBE72846D1E71F
:101F4000F0B4860746D0541E002A3CD0CAB20346DD
:101F500001E0013C37D303F8012B9D07F9D1032C95
:101F60002AD9CDB245EA05250F2C45EA054534D9D5
:101F7000A4F1100222F00F0C03F1200716096744A8
:101F800003F1100242E9045542E902551032BA4207
:101F9000F8D1721C14F00C0F03EB021204F00F06C0
:101FA00013D0331F23F003030433134442F8045BBC
:101FB0009342FBD106F003042CB1CAB21C4403F8CF
:101FC000012B9C42FBD1F0BC704734461346002CD9
:101FD000F3D1F8E714460346C1E71A462646E0E780
:101FE0000EB400B582B003AB816853F8042B0193A3
:101FF00005F076FA02B05DF804EB03B0704700BF5D
:102000000FB410B584B006AC54F8042B019218F04C
:1020100065FA019A81680394234605F061FA04B0D9
:10202000BDE8104004B0704770B50E4682B014464B
:10203000054608B1836933B301A9012014F0DEFD20
:10204000A36FD80702D4A389990528D5A368013BBB
:10205000002BA36021DAA269934217DBF0B20A28B1
:1020600014D023685A1C226005461E70A36FDA073D
:1020700002D4A3899B0517D5019801A914F0BEFDD0
:10208000284602B070BDFEF7BBFAD5E728463146B8
:10209000224606F021FE0546E8E7F0B2E1E704F14A
:1020A000600014F016FDD1E704F1600014F033FD78
:1020B000E2E700BF70B582B006460C4618F00EFA93
:1020C000054608B1836933B301A9012014F096FDD8
:1020D000A36FD80702D4A389990528D5A368013B2B
:1020E000002BA36021DAA269934217DBF0B20A2821
:1020F00014D023685A1C226005461E70A36FDA07AD
:1021000002D4A3899B0517D5019801A914F076FD87
:10211000284602B070BDFEF773FAD5E7284631466F
:10212000224606F0D9FD0546E8E7F0B2E1E704F102
:10213000600014F0CEFCD1E704F1600014F0EBFC79
:10214000E2E700BF70B5054688B008460C4601F0CE
:10215000B7FD264AAB6904940126441C04A90692E3
:1021600002220394CDE90112AC680590079663B38F
:102170006946012014F042FDA36F13F0010FB4F97A
:102180000C309AB201D1980528D5910406D4A26FDB
:1021900043F4005322F40052A381A267284601AA07
:1021A000214607F04DFFA36F002814BF4FF0FF3505
:1021B0000A25DA0702D4A3899B050AD50098694647
:1021C00014F01CFD284608B070BD2846FEF718FA2A
:1021D000CEE704F1600014F09EFCEFE704F160002C
:1021E00014F077FCB4F90C309AB2CEE7DC24040882
:1021F00000B583B0019018F071F9019903B05DF852
:1022000004EBFFF79FBF00BF10B582B0019018F03C
:1022100065F9044618F099FB019A0146204602B080
:10222000BDE8104018F07FBB10B582B004460191A4
:1022300018F08BFB019A0146204602B0BDE8104021
:1022400018F071BB38B50C460968054609B1FFF7AF
:10225000F9FF21462846BDE83840FEF715BC00BF0F
:10226000314B1B68834259D0C26970B50546002ABC
:102270004FD0D16891B100268C5944B121462468D1
:102280002846FEF701FC002CF8D1EB69D96804362A
:10229000802EF1D12846FEF7F7FBEA691168002984
:1022A0003DD02846FEF7F0FB696911B12846FEF7DC
:1022B000EBFBEA691AB111462846FEF7E5FB296BEC
:1022C00011B12846FEF7E0FB696B11B12846FEF715
:1022D000DBFBA96B11B12846FEF7D6FBE96C11B107
:1022E0002846FEF7D1FBA96C11B12846FEF7CCFBBE
:1022F000E96A11B12846FEF7C7FBAB696BB12B6ADF
:1023000028469847E96B41B12846BDE87040FFF781
:1023100099BF41690029C9D1D1E770BD704769698A
:102320000029C3D1C7E700BF24020010838903F04E
:102330000903092B01D000207047FEF7C9B800BF80
:10234000F8B50C46054610B18369002B41D0B4F9AD
:102350000C309F049AB207D4A26F43F4005322F4C6
:102360000052A267A3819AB20021960661605BD4F5
:1023700050071BD4D1065AD512073ED443F00403AC
:10238000A3812369002B44D0B4F90C60B307B7B222
:1023900022D122696369216A22602846656AA847BA
:1023A00000286060C8BF002038DDF8BD616B0029DF
:1023B000E7D004F14403994202D02846FEF764FBBB
:1023C000236C636000206063002BDAD0E36B236032
:1023D000F8BDFEF715F9BAE71D4B1E491868012331
:1023E000A38107F00907FEF7C1FE092FA681D0D10E
:1023F00021462846FDF786FFCBE721462846FEF713
:1024000029F888B9B4F90C30A060A06123F0080362
:10241000B4E721462846FFF74DF8B5E7B4F90C308C
:102420000DD143F02003A3814FF0FF30F8BD43F0FE
:10243000400309222A604FF0FF30A381F8BD43F02A
:1024400040030022A38162604FF0FF30F8BD00BF5F
:10245000D00804082D23000838B50C46054608B1FD
:10246000836963B128462146FFF76AFF50B9D4E972
:102470000023013B511CC4E90013107838BDFEF75E
:10248000BFF8EFE74FF0FF3038BD00BF00B583B0B5
:10249000019018F023F8019903B05DF804EBFFF701
:1024A000DBBF00BF0EB430B5A4B027AC4FF4017150
:1024B00054F8042B0192ADF81C100490089001F020
:1024C000FFFB0C4D039400234FF6FF7111931693FD
:1024D000ADF81E10059009900D9517F0FFFF019AB9
:1024E000039B04A902F0E4FD24B0BDE8304003B032
:1024F000704700BF7D2500080CB470B5A4B028ACAF
:10250000054654F8042B01924FF4017308460491D8
:102510000891ADF81C3001F0D3FB0146234603942B
:10252000059100240991019A084E0D96284604A9A8
:102530004FF6FF7511941694ADF81E5002F0B8FDD9
:1025400024B0BDE8704002B0704700BF7D25000890
:1025500010B50C46B1F90E1018F048F8002807DB4A
:10256000D4E91623121843EBE073C4E9162310BD17
:10257000A38923F48053A38110BD00BF00207047BE
:102580002DE9F041B1F90C509846EB050C4682B0AC
:10259000B1F90E10174606460AD425F48055434675
:1025A0003A463046A58102B0BDE8F04117F0D3BFEE
:1025B000022300930022002318F04DF8B4F90C50C8
:1025C000B4F90E10E9E700BF10B582B00C460093D5
:1025D000B1F90E10D31718F03EF84B1C08BFB0F13C
:1025E000FF3F024609D00B46A189104641F48051B5
:1025F000C4E91623A18102B010BDA189104621F4BF
:102600008051A18102B010BDB1F90E1017F070BF5A
:1026100011F0FF01034600F0030243D092BB70B4F7
:10262000046841EA012646EA064686EA0405A5F161
:102630000133A4F1013223EA050322EA0402134321
:1026400013F0803F0FD150F8044F84EA0605A5F13E
:102650000132A4F1013322EA050223EA0403134301
:1026600013F0803FEFD0037823B936E010F8013F34
:10267000002B32D09942F9D130E08A4211D09A072A
:102680001846CCD0184613F8012B002AF5D1104675
:1026900070479907184607D0184601330278002A78
:1026A000F7D17047002AF7D10268A2F1013323EA7B
:1026B000020313F0803F08D150F8042FA2F1013338
:1026C00023EA020313F0803FF6D00378002BE8D012
:1026D00010F8013F002BFBD17047184670BC7047C3
:1026E000A2EB0300704700BF02780B78012A28BFD5
:1026F0009A42F5D16DE9044540EA0104CDE902674B
:102700006FF0000C4FEA447212B380EA010414F037
:10271000070F6AD100F0070420F0070004F003055A
:1027200021F007014FEAC505F0E8042314F0040F77
:10273000F1E804670CFA05F462EA040266EA0406AA
:102740000AD063EA0403624667EA0407664603E0C8
:10275000F0E80423F1E8046782FA4CF582EA060403
:10276000A4FA8CF46CBB83FA4CF583EA0705A5FA4E
:102770008CF595B950E9022351E9026782FA4CF5CC
:1027800082EA0604A4FA8CF483FA4CF583EA07057E
:10279000A5FA8CF52543DBD09CB92DBAB5FA85F4A2
:1027A00024F0070427FA04F1DDE9026723FA04F3B1
:1027B00003F0FF0001F0FF01FDE80445A0EB01007C
:1027C000704724BAB4FA84F424F0070426FA04F11A
:1027D000DDE9026722FA04F202F0FF0001F0FF01D6
:1027E000FDE80445A0EB0100704714F0030F3CD155
:1027F00010F0030428D150F8082B51F8083B82FA56
:102800004CF582EA0305A5FA8CF55DB950F8042C65
:1028100051F8043C82FA4CF582EA0305A5FA8CF5DE
:10282000002DE8D02DBAB5FA85F424F0070423FA78
:1028300004F122FA04F202F0FF0001F0FF01FDE8CA
:102840000445A0EB010070474FEAC40420F00300E8
:1028500050F8082B21F0030151F8083B0CFA04F45E
:1028600062EA040263EA0403C9E710F003041AD021
:10287000A1EB040120F00300E40750F8042B06D07C
:102880000FD28B785FFAA2F4E41A06D12BB1CB7881
:102890005FFAB2F4E41A00D11BB920465DF8104B80
:1028A000704701F1040150F8042BCC0721F003011B
:1028B00051F8043B48D824D222F07F4482FA4CF5E8
:1028C00094EA1325A5FA8CF50AD165B951F8043BB1
:1028D00084EA0204B4EB036F0ED150F8042BEBE74B
:1028E0004FEA132355E035F07F454DD10878FDE8D8
:1028F0000445C0F1000070474FEA126203F0FF0385
:1029000047E002EA1C4482FA4CF594EA1345A5FA22
:102910008CF50AD165B951F8043B84EA0204B4EBA2
:10292000034F0CD150F8042BEBE74FEA134330E090
:1029300015EA1C4528D10B884FEA124229E04FEADC
:10294000124203EA1C4324E002F0FF0482FA4CF531
:1029500094EA1365A5FA8CF50AD165B951F8043BE0
:1029600084EA0204B4EB032F09D150F8042BEBE7FF
:102970004FEA13630DE015F0FF0F05D10B684FEA26
:10298000122223F07F4304E04FF00000FDE80445ED
:10299000704712BA1BBA82FA4CF482EA0304A4FA12
:1029A0008CF5B5FA85F402FA04F203FA04F34FEA5F
:1029B0001260FDE80445A0EB13607047FFF794BE7A
:1029C00080EA0102844612F0030F4FD111F0030F89
:1029D00032D14DF8044D11F0040F51F8043B0BD0E7
:1029E000A3F101329A4312F0803F04BF4CF8043B3C
:1029F00051F8043B16D100BF51F8044BA3F101324A
:102A00009A4312F0803FA4F101320BD14CF8043B01
:102A1000A24312F0803F04BF51F8043B4CF8044B32
:102A2000EAD023460CF8013B13F0FF0F4FEA3323A3
:102A3000F8D15DF8044B704711F0010F06D011F882
:102A4000012B0CF8012B002A08BF704711F0020F70
:102A5000BFD031F8022B12F0FF0F16BF2CF8022B5B
:102A60008CF8002012F47F4FB3D1704711F8012B7E
:102A70000CF8012B002AF9D1704700BF10B50C46A5
:102A800011468E2C00F29180DFE814F037013901F5
:102A90003501330131012F012D012B0129012701BE
:102AA0002501230121011F011D018F001B011901B7
:102AB00017011501130111010F010D010B0109018E
:102AC0000701050103010101FF00FD00FB00F90002
:102AD000F700F500F3008F008F008F008F008F004C
:102AE0008F008F008F00F100EF008F008F008F00AC
:102AF0008F008F008F008F008F008F008F008F005E
:102B00008F008F00ED00EB00E900E7008F008F00E1
:102B10008F00E5008F008F008F00E3008F008F0093
:102B2000E1008F008F00DF008F008F008F008F008B
:102B30008F008F008F008F008F008F00DD008F00CF
:102B4000DB00D900D7008F008F00D5008F008F00E9
:102B50008F008F008F008F008F008F00D300D10077
:102B6000CF00CD00CB00C9008F00C700C500C30057
:102B7000C100BF00BD00BB00B900B700B500B30085
:102B8000B100AF008F00AD00AB00A900A7008F001F
:102B90008F008F008F008F00A5008F008F008F00A7
:102BA000A300A1009F009D009B00002B14BF1A46AC
:102BB0000246204603F07CFD524B002808BF184611
:102BC00010BD514810BD514810BD514810BD51486D
:102BD00010BD514810BD514810BD514810BD51485D
:102BE00010BD514810BD514810BD514810BD51484D
:102BF00010BD514810BD514810BD514810BD51483D
:102C000010BD514810BD514810BD514810BD51482C
:102C100010BD514810BD514810BD514810BD51481C
:102C200010BD514810BD514810BD514810BD51480C
:102C300010BD514810BD514810BD514810BD5148FC
:102C400010BD514810BD514810BD514810BD5148EC
:102C500010BD514810BD514810BD514810BD5148DC
:102C600010BD514810BD514810BD514810BD5148CC
:102C700010BD514810BD514810BD514810BD5148BC
:102C800010BD514810BD514810BD514810BD5148AC
:102C900010BD514810BD514810BD514810BD51489C
:102CA00010BD514810BD514810BD514810BD51488C
:102CB00010BD514810BD514810BD514810BD51487C
:102CC00010BD514810BD514810BD514810BD51486C
:102CD00010BD514810BD514810BD514810BD51485C
:102CE00010BD514810BD514810BD514810BD51484C
:102CF00010BD514810BD514810BD514810BD51483C
:102D000010BD00BF9C2404084C2B0408342B04087D
:102D1000202B0408842B04087C280408B42704080A
:102D2000EC2A0408042B0408F0260408B02A04083E
:102D300024290408AC2B0408B825040880250408BD
:102D4000882604088827040878260408C02B04086D
:102D5000CC260408A0280408C82A0408982A0408D5
:102D6000682A0408502A0408302A0408102A040893
:102D7000E0290408BC2904087C2A0408602B040804
:102D8000A429040888290408742904085829040877
:102D90004C2904083829040814290408FC280408CC
:102DA000E8280408D0280408D8290408C028040802
:102DB000B828040894280408682804084C28040843
:102DC0003828040808280408FC270408EC2704080D
:102DD000D4270408C42704089C270408782704087B
:102DE000682704085027040830270408102704081F
:102DF000B8260408A82604086826040858260408EB
:102E0000442604083826040820260408142604084A
:102E100000260408EC250408D8250408AC2504087D
:102E20009C2504086C250408582504083C25040842
:102E3000302504081825040808250408EC24040893
:102E4000D82B0408E024040800B583B0019017F0E3
:102E500045FB002301991A4603B05DF804EBFFF728
:102E60000DBE00BF00B583B0019017F037FB002303
:102E700001991A4603B05DF804EBFFF7FFBD00BFF0
:102E80004269002A40F26C73A8BF6FF063031344D9
:102E9000920710B408D14D4A4D4C4E4902FB0342F3
:102EA000B1EBB20FC0F08F80484C49494A4A04FB4D
:102EB0000313B2EB331F2CBF01220022D0E90631ED
:102EC0005B0003EB01131344212B27DDA3F5B5535E
:102ED000023B352B24D8352B22D8DFE803F01B2109
:102EE00021212121212121212121212121211B1BDE
:102EF0001B212121212121212121212121211B1BD4
:102F00001B1B1B2121212121212121212121211BC9
:102F1000211B211B01205DF8044B7047002B03DAB5
:102F200000205DF8044B7047212BF9D801A252F81C
:102F300023F000BFBD2F0008BD2F0008212F00087F
:102F4000212F0008212F0008212F0008212F000821
:102F5000212F0008212F0008212F0008BD2F000875
:102F6000BD2F0008BD2F0008BD2F0008212F00082D
:102F7000212F0008BD2F0008BD2F0008212F0008B9
:102F8000212F0008212F0008212F0008212F0008E1
:102F9000212F0008212F0008212F0008212F0008D1
:102FA000212F0008BD2F0008BD2F0008212F000889
:102FB000212F0008BD2F0008BD2F00084FF0FF3063
:102FC0005DF8044B7047012278E700BF295C8FC28F
:102FD00050B81E05285C8F020AD7A3002DE9F04FD8
:102FE000147899B0814688465CB9A246B8F1000FC2
:102FF00000F090800023504609F80A3019B0BDE86F
:10300000F08F9B4600230B939A462346252B1446AC
:103010000DD008F1FF3252457AD909F80A3001344F
:103020000AF1010A2378002BE0D0252BF1D1657835
:10303000302D76D02B2D74D02946A1F13103082BE9
:1030400004F101044FF0000572D90026452965D02E
:103050004F2963D0A1F12503552B59D8DFE813F090
:10306000EB0158005800580058005800580058000C
:103070005800580058005800580058005800580090
:103080005800580058005800580058005800580080
:1030900058005800580058005002730224014E0195
:1030A00058006E01840189009100580058005800B2
:1030B000290258005800A8005800DB0137043B04DF
:1030C0004C04CC0169037C038303B003580058000F
:1030D00058005800580058002D02D6001002710008
:1030E00071005800F600D60058001A0189009100BE
:1030F0001F0196025800A8005800A102A8024D0323
:1031000058035800E4034F045604F10303F020F879
:103110004FF0000A504619B0BDE8F08F61780134D5
:1031200098E7A178A1F13103082B04F102048CD8AF
:10313000204610A90A2201F07FFF109C0646217844
:1031400084E7C248C24ADBF80C30642908BF024653
:10315000A8EB0A0109EB0A0008F00AFD0028D7DBFA
:103160008244D045D4D92378002B3FF43FAF0134BB
:1031700058E7B748B54ADBF808306B2908BF024664
:10318000E6E7DBF80830002B00F0E2830C2B09D0D7
:10319000B04A82FB0320DA17C2EB600202EB420264
:1031A000A3EB8203A948AA4A492908BF0246CFE7F0
:1031B000DBF80820A84B0B2ACCBFA422A022134482
:1031C0005F68384600F07CFD0028CCD008F1FF365F
:1031D00056459DD90AF1FF32791EA04F00EB0A0532
:1031E0004A44207811F8013F50280AF1010A06D11B
:1031F000D85D00F00300012804BF2033DBB2AA45EC
:1032000002F8013FAFD0B245EBD381E7924BDBF838
:10321000102053F82260304600F052FD0028A2D062
:1032200008F1FF35AA45BFF473AF0AF1FF33721EF0
:1032300000EB0A014B440AF1010A12F8010F03F8EE
:10324000010F8A458FD0AA45F5D361E75846FFF7AD
:1032500017FEDBF8141000290546C0F29184804B5C
:1032600083FB0123CA17C2EB6312642303FB121210
:10327000A9187B4D85FB0123CA176420C2EB63129A
:1032800000FB12120244A5FB02135B0900FB13238F
:103290006E4A5DE7DBF81C30724A013358E7DBF811
:1032A00010306A4A013353E76F4ADBF81430022EBC
:1032B00038BF02269342ACBF00220122002B0C92A1
:1032C00009EB0A07A8EB0A01C0F24184644A82FBB9
:1032D0000320DA17C2EB60101330002D40F0A583F5
:1032E000624A634D0C9BF61ACDE900602B463846C6
:1032F00008F03EFC0028BFF633AF09E7DBE90430F5
:103300000028DBF80C6003F1010309EB0A05A8EBC8
:103310000A01C0F20984524A82FB0027C217C2EB9D
:103320006712642707FB1202CDE900622846514A62
:1033300008F01EFC0028BFF613AFE9E625238DF840
:103340004030002D40F0F1822B238DF841300423D2
:103350000DF14205484A28461E2108F009FC0028C4
:1033600040F3ED822844EBE2DBF814203E4F0C9250
:10337000BA425846ACBF00270127FFF781FD0C9ADF
:10338000002A0146C0F21484354B83FB0203D01798
:10339000C0EB6313133396463148A0FB0E0C4FEA83
:1033A0005C1C642000FB1CEC0029C0F2108300F0C0
:1033B00039842D488242C0F24B8300278C44BCF1F3
:1033C000FF3F00F00E83BCF1640F04BF01334FF0E8
:1033D000000C642202FB03C3002F40F043832B2D1B
:1033E00000F0608310AF384625210170002D40F0B9
:1033F000668301300C93CDE15846FFF741FDDBF8C1
:103400001810002900F0C4820139002840F3ED8231
:1034100001230E4A9CE6DBF804300093DBF8083009
:10342000164AA8EB0A0109EB0A0008F0A1FB0028E4
:10343000BFF696AE6CE608F1FF3353457FF668AEF3
:10344000252309F80A300AF1010A8CE6F82B040852
:10345000002C0408ABAAAA2AB40A0408CD07040861
:103460001F85EB51242C040894F8FFFFE82B040877
:103470009C240408042C0408142C04082C2C040894
:10348000C84BD3F8A050284600F01AFC2B78002B2C
:103490003FF469AE229B00932A465B46A8EB0A01E3
:1034A00009EB0A00FFF79AFD00287FF731AE82444E
:1034B00059E6DBF80430BC4A4AE6DBF81830B94A72
:1034C000183352F82360304600F0FAFB00283FF42E
:1034D0004AAE08F1FF35AA45BFF41AAE0AF1FF3330
:1034E000721E00EB0A014B440AF1010A12F8010FA7
:1034F00003F8010F8A453FF436AEAA45F4D307E638
:10350000A84BDBF8182003EB8203DE6F304600F097
:10351000D7FB00283FF427AE08F1FF35AA45BFF4DA
:10352000F7AD0AF1FF33721E00EB0A014B440AF1BA
:10353000010A12F8010F03F8010F8A453FF413AE98
:10354000AA45F4D3E4E5DBF81030964A0C3352F880
:103550002360304600F0B4FB00283FF404AE08F1CD
:10356000FF35AA45BFF4D4AD0AF1FF33721E00EB5C
:103570000A014B440AF1010A12F8010F03F8010F86
:103580008A453FF4F0ADAA45F4D3C1E508F1FF3315
:1035900053457FF6BDAD0A2309F80A300AF1010A46
:1035A000E1E5804BD3F8E450284600F089FB6DE755
:1035B000DBF82030002B80F2F18100220023CDE9DE
:1035C0000C23DBF81450B5F145014FEAE57308917F
:1035D00043F1FF310991DDE90867A8EB0A01002EEC
:1035E00007EE901A77F1000109EB0A0005DAB5F150
:1035F000420143F1FF330891099308996B4E8A0801
:1036000009996F1E42EA81728B10684986FB07ECAC
:1036100005F22B16FF17C7EB6C1781FB061CF6177C
:10362000C6EBEC16D21BA5F1460540F26D1C0CFB57
:1036300005FC63EBE773DBF81C70921943EBE67350
:1036400012EB0C0243EBEC73D21943EBE7739718C0
:1036500043EB030CB9184CEB030302910393DDE930
:103660000212D300029A43EA5173D200CDE9022339
:10367000DBE90156DDE90223921943EBE6731701FA
:103680001E01B91A46EA127666EB0303049105930C
:10369000DDE90467BB0043EA9673B200CDE9042379
:1036A000DDE90423521943EBE57316011D01B11A3C
:1036B00045EA127565EB030307930691DDE90612EF
:1036C000950045EA91758E00CDE90665DDE906674E
:1036D000DBF800300D99364AF61847EBE3770C9B80
:1036E000F31A67EB010517EE901ACDE9003508F0E3
:1036F0003FFA0028BFF634AD0AE508F1FF33534521
:103700007FF606AD092309F80A300AF1010A2AE515
:1037100008F1FF3353457FF6FBACDBF8183009EBBB
:103720000A020AF1010A002B40F03481372313709A
:1037300019E5DBF81810002900F00C810139DBF8DD
:103740001C30194A0733591A1A4B83FB01030B44E7
:10375000C917C1EBA303FBE4124BD3F898502846DA
:1037600000F0AEFA92E6DBF81470134B9F4280F241
:10377000F3802D22DB1B0C938DF84020002E40F0AF
:1037800079810DF1410010AF25230370002D40F029
:10379000FB8001300949FFF713F90C9B00933A466F
:1037A00033463EE6B40A0408F82B04081F85EB51A3
:1037B000382C04089324499294F8FFFF202C040825
:1037C000DBF82030002BFFF6D2AC02F0BBFC0B9BE9
:1037D000002B00F03E82DBF82030C04A002BD4BF23
:1037E00000230123554652F82360304600F068FA62
:1037F000B0B108F1FF318A45BFF488AC0AF1FF335C
:10380000721E00EB0A054B4402E08A45BFF47EAC11
:103810000AF1010A12F8010F03F8010FAA45F4D1C9
:1038200002F096FCAA464FE008F1FF3353457FF6BD
:103830006FACDBF81830303309F80A300AF1010AAE
:1038400091E4DBF82030002BFFF691AC02F07AFC1B
:103850000B9B002B00F0208107F0AAF9DBF8203049
:103860009F4D002BCCBF0A23052309EB0A0750F814
:103870003360764202F06CFC85FB06303044F3176F
:10388000C3EB60100B9307F09BF985FB0032111816
:10389000944BC217C2EB6112C2EB021283FB0631DA
:1038A0000B9BA0EB82020E440092A8EB0A018E4A09
:1038B000C3EBE623384608F05BF90028FFF628AC96
:1038C0008244D0457FF624AC01230B934BE4DBF814
:1038D0000030864A3CE4DBE90023CDE90032A8EB66
:1038E0000A01DBF80830824A09EB0A0008F040F9C7
:1038F0000028BFF635AC0BE4DBE9061321E77D4B6E
:10390000D3F89C50284600F0DBF9BFE5DBF8140043
:103910000028C0F2DD80784B83FB0032C317C3EB75
:103920006213642202FB130373E5062E38BF0626DA
:10393000B31F8DF841507FF40BAD0DF142052846C1
:103940006E49FFF73DF8229B009310AA5B46A5E560
:103950000C2327E40621F2E607F26C732B2D0C935F
:1039600002D010AF38460FE70C9A42F20F739A421A
:1039700040F25D818DF84050002E7BD125238DF8DB
:1039800041300DF1410010AF30234370023001E7A8
:1039900006213AE530331370FFF7E5BB02F0D2FBA6
:1039A0000B9B002B75D007F003F9DBF82030002BC0
:1039B000CCBF0A230523012250F833500B926D42ED
:1039C00002F0C6FB2A46EB17CDE90C23F9E54C487B
:1039D000DBF8142082424FDB8C44BCF1FF3F7FF4C4
:1039E000F8AC013B4FF0630CF3E4DBF81C3046D03D
:1039F000DBF81400002840F26B72A8BF6FF064027D
:103A00000244CB1A910740F0FF803E483E4D3F49AB
:103A100000FB0250B1EBB00F80F0F68001229B1A40
:103A2000052BB4BF35233423F3E4632837DDDFF8F7
:103A3000E8E0DFF8E8C0364A2B2D14BF754665462E
:103A4000DFF8DCE0DFF8DCC07345B8BF654649E469
:103A50000CF1FF32BCF1000F00F0F5804FF0640C68
:103A60000CFB03232D228DF8402066BB0DF1410095
:103A700010AFB9E4013E84E601210F469EE4254AD9
:103A80000A335B1A82FB03121A44DB17C3EBA2034F
:103A9000BFE402F063FB86E702F060FBDCE61C4A51
:103AA0001D4D1FE442F20F72934240F2C9808DF81F
:103AB000405046B90DF1410010AF25210170302171
:103AC0004170023096E4013E0DF1410010AF8BE4ED
:103AD00000F26C7005F0E4F91DE700BF98060010D5
:103AE00089888888C5B3A291502C0408F82B040853
:103AF000402C0408B40A04081F85EB51182C040854
:103B000095F8FFFF295C8FC250B81E05285C8F0214
:103B1000E02B0408932449929C240408F02B040809
:103B200094F8FFFFF42B040800F26C700E930C91D4
:103B300005F0B6F94E4B0C9983FB0037C217C2EB68
:103B4000671264270E9B07FB1202FFF7EDBB03F21F
:103B50006C700F910E9305F0A3F9454B024683FB61
:103B6000003CC017DDE90E31C0EB6C10002D56D0C3
:103B700042F20F7C62453FF75AAF3E4D3E4A5FE747
:103B800001F26C7005F08CF9394BC21783FB0031E0
:103B9000C2EB61126423002D03FB12025CDADBF836
:103BA0001410A3F2CF739942B8BF0125FFF760BB91
:103BB0000E9002F26C700C9205F072F92C4BDBF84F
:103BC00014E00C9A0E9983FB003CBEF1000F4FEA03
:103BD000E073C3EB6C13BFF6DFAB0EF26C70CDE994
:103BE0000E130C9205F05CF9214B0C9A83FB003EFE
:103BF0004FEAE07CCCEB6E1C4FF0640EDDE90E1357
:103C00000EFB1C0CFFF7D0BB1C481D4D1D4900FBD3
:103C10000252B1EB321F2CBF01220022FFE6154DEC
:103C2000194A0DE7BCF1FF3F7FF4D3ABD9E6002E74
:103C30007FF497AE252310AF8DF840303846A3E6C9
:103C400010AF384639E75A1E642303FB02F363338F
:103C500008E702F083FABEE53FF40AAB0B4BDBF852
:103C600014109942B8BF4FF0FF35FFF701BB00BFFA
:103C70001F85EB519C240408E02B0408295C8FC2AB
:103C800050B81E050AD7A300E82B040894F8FFFFDC
:103C900010B582B0024C0094FFF7A0F902B010BD3D
:103CA000D4080408FFF79AB90000000000000000E3
:103CB0000000000000000000000000000000000004
:103CC00090F800F06DE9024520F007016FF0000C5C
:103CD00010F0070491F820F040F049804FF0000404
:103CE0006FF00700D1E9002391F840F000F10800DF
:103CF00082FA4CF2A4FA8CF283FA4CF3A2FA8CF317
:103D00004BBBD1E9022382FA4CF200F10800A4FA7D
:103D10008CF283FA4CF3A2FA8CF3E3B9D1E90423D1
:103D200082FA4CF200F10800A4FA8CF283FA4CF308
:103D3000A2FA8CF37BB9D1E9062301F1200182FAC2
:103D40004CF200F10800A4FA8CF283FA4CF3A2FAC8
:103D50008CF3002BC6D0002A04BF04301A4612BAD6
:103D6000B2FA82F2FDE8024500EBD2007047D1E9D9
:103D7000002304F00305C4F100004FEAC50514F068
:103D8000040F91F840F00CFA05F562EA05021CBF39
:103D900063EA050362464FF00004A9E70000000053
:103DA00070B504460D4645EC104B164607F0AEFACA
:103DB00051EC100B7EB1C5F30A53C3F16B03002B1A
:103DC00009DD1B0503F17F55002405F5401522464A
:103DD0002B460BF0F5FB70BD2DE9F04FA94C246884
:103DE000A3B08046002520468A46079406921C46CA
:103DF0001E95FFF765FF002183460020CDE90401F1
:103E0000CDF874A05246174612F8013B2D2B2FD83F
:103E1000DFE813F0BC002E002E002E002E002E0036
:103E20002E002E002E00CA00CA00CA00CA00CA0016
:103E30002E002E002E002E002E002E002E002E0012
:103E40002E002E002E002E002E002E002E002E0002
:103E50002E002E00CA002E002E002E002E002E0056
:103E60002E002E002E002E002E0032042E002704DD
:103E700000220A92302B00F0998000220B922F2B07
:103E80001C4640F31C854FF000094E464D4638460F
:103E900013E00130082D1D90C8BF09EB8909047893
:103EA000C6BF03EB4903A3F13009A2F130062F2C62
:103EB00005F10105234640F3918006EB8602392C7B
:103EC00003EB4202E5DD07995A4607F0D3FE0346AD
:103ED00000287CD11D9A11465A441D9211F80B40BE
:103EE000002D40F0E185302C40F09F85C2F10101AA
:103EF000531801321D921478302CF9D0A4F13102FC
:103F0000082A00F264831D9F03F1010B0023A4F132
:103F1000300E01253C46089306EB86060EEB46065E
:103F20000023621C1D926478A4F13001092920D875
:103F30001D9C01338E460029F3D0012B9B4405F1D3
:103F4000010000F0D6862B4403F1FF3C04E046005C
:103F50006245154600F0A684082D05F1010206EB26
:103F60008600F4DD102ADCBF09EB89094FEA490914
:103F7000EEE70122652C079200F08980452C3BD1A9
:103F8000002D40F084800B9A1A437FD1069B13B119
:103F9000069BC3F800A04FF0000A4FF0000B4BEC5B
:103FA00010AB23B0BDE8F08F1D922CE77B7803F0B7
:103FB000DF03582B00F0578401371D973B78302BD7
:103FC000FAD0002B00F0D28001220B9257E7002399
:103FD000652CCDE907359B46D2D0CFE707995A46E5
:103FE00007F048FE0346002800F0D48008954FF003
:103FF000000BCDF81CB05B4600220C92002D00F0A7
:10400000918030460BF062FA089C2346002C08BFD2
:104010002B4608930C9B102DA3EB0B032C46A8BF3B
:104020001024092DCDE904010B9314DD164B03EB8D
:10403000C40353E912230BF0C3FA024648468A46EA
:1040400091460BF043FA02460B46484651460BF0A8
:1040500001F9CDE904010F2D00F3A5800B9B002B86
:1040600000F0FE830B9B40F34E83162B40F3EA8453
:104070000B9AC5F12503934280F21A850B9B2C1BEA
:104080001C4496E0F00B0408100C04080025DDF831
:1040900074A00AF101021D929AF801402B2C00F045
:1040A00093822D2C00F027824FF0000EA4F13002F5
:1040B000092A00F21B82302C05D11D9A01321D9273
:1040C0001478302CFAD0A4F13102082A94D81D9922
:1040D0000C914A1C1D92A4F130004C782F2C08DC66
:1040E000FCE301321D929CF801402F2CA1F130001D
:1040F00006DD00EB8001392C944604EB4101F0DD34
:104100000C99521A082A40F3E98344F61F620C9274
:10411000BEF1000F3FF472AF0C9A52420C92002D88
:104120007FF46FAF0B9A134320D1079B002B7FF4D2
:104130002DAF692C00F02A8400F3FD82492C00F099
:1041400025844E2C7FF422AFB9491DA806F0F2FB5E
:1041500000283FF41BAF1D9B1B78282B00F04A85DD
:10416000B44807F0BDFC5BEC10AB03E04FF0000A75
:104170004FF0000B069A0AB11D9B13600A9B002B9F
:104180003FF40DAF0BF100439B464BEC10AB23B05B
:10419000BDE8F08F1D9A089502EB0B011D9112F8F6
:1041A0000B409B46C0E60B9B2C1B1C44002C40F391
:1041B000E78214F00F030AD09F4901EBC301D1E954
:1041C0000001DDE904230BF0FBF9CDE9040134F033
:1041D0000F0340F0818200230793089A00962B4634
:1041E0003946404606F0D0FD1490002800F0E883E0
:1041F0000C9BABEB03000B9B0026002BB4BF0246CD
:10420000324623EAE3730D9237461193B346149C6A
:104210004046616806F02CFD8146002800F0488188
:1042200022699DED047B0232920004F10C010C30F6
:104230008DED087BFDF73CFD9DED080B20AA1FA925
:10424000404607F0EFF81E90002800F02181012180
:10425000404606F039FE0746002800F029811F9BE2
:10426000002BC0F218810D9A119D9E180799209C71
:10427000724A5B1A2344013B9342C4F1360480F234
:10428000B380D21A1F2AA4EB020400F32781012372
:1042900093400E9300231593079B25443444A64274
:1042A0001D443346A8BF2346AB42A8BF2B46002B74
:1042B00002DDE41AED1AF61A0D9B002B00F3C880FC
:1042C000002C00F3DC800B9B002B00F3E880002D1A
:1042D00000F3FA80002E08DD39463246404606F0EB
:1042E000FBFE0746002800F0E3801E994A46404640
:1042F00006F078FF8346002800F0DA800023C268C9
:10430000C3603946109206F04FFF0028C0F24D847A
:10431000059B0C9300F0E3833946584607F0E0F81C
:1043200055EC104B10EE100A00224FF08043294646
:104330000BF0C2FB00285CD0109B002B00F0E88043
:104340009FED377B3E4C8DED0E7B002325461C46B2
:104350000C9A3C4E3C4B16409E4200F0FF80079B5F
:1043600083B1B6F1D46F0DD82FA3D3E90023DDE9D3
:104370000E010BF0A1FB002840F0968105F1D663F9
:104380009B1B1D4620462946DDE9084545EC104BA0
:10439000CDE9040106F0BAFFDDE9040153EC102B6E
:1043A0000BF00EF922462B460AF054FF02460B464C
:1043B000CDE904238A46079B2BB9224B0AEA030363
:1043C0009E4200F00D811E99404606F085FC49464C
:1043D000404606F081FC3946404606F07DFC5946D1
:1043E000404606F079FC12E70023159301230E9353
:1043F00052E7164B2046294600220BF0E1F8109BAD
:10440000CDE90E01002B7ED101F1004312901393F0
:10441000DDE9122314461D469AE700BFAFF3008082
:10442000000000000000F03F0000C0FFFFFFDF4180
:10443000682C04089C240408100C040802FCFFFFEC
:104440000000F03F0000F07F0000E07F0000E03F50
:1044500039461A46404606F0E3FD074640B301469A
:104460001E9A404606F03AFD10B30C901E99404645
:1044700006F032FC0C9B1E93002C7FF724AF1E9994
:104480002246404606F028FE1E9000287FF41BAF0F
:1044900004465E460EE0119A0D9ED51AE6E64946A0
:1044A000119A404606F0BCFD814600287FF40FAF0C
:1044B0005E461E9CAA4B0593002222230492DDE94E
:1044C00004ABC8F80030B7E049462A46404606F03B
:1044D00003FE814600287FF4FDAEE9E7A14AD31A26
:1044E000012202FA03F315930E92D5E60022CDF8CD
:1044F00074A00C9282E54FF0010E0AF102021D92A7
:104500009AF80240D2E59DED0E7B8DED127B7FE7A0
:10451000049B002B40F0B3800C9BC3F31303002BD0
:1045200040F0B480904B0022204629460BF0BAFAA6
:10453000002840F094828D4B0022204629460BF043
:104540003FF80A460146CDE90E1202F100431A90E7
:104550001B93DDE91A3425461C46F9E6A2F1547393
:1045600005939DED047B20462946B0EE470AF0EE08
:10457000670A55EC174BCDE9040106F0C7FEDDE9EB
:10458000040153EC102B0BF01BF822462B460AF0CB
:1045900061FE734B764A0B40CDE904018C46DDE9A0
:1045A0000801934204460D46CDE9184577D9714B71
:1045B000994203D1B0F1FF3F3FF47AAF6D494FF01C
:1045C000FF33CDE90431FEE64FF0000E95E7652C90
:1045D00000F0AB80452C00F0A88001220792A1E5F5
:1045E000DDE90E45204629460BF09AFB0AF0BAFF9A
:1045F0000B460246294620460AF02AFE049C109EDD
:10460000CAF3130C264356EA0C0304460D4671D038
:104610004BA3D3E900230BF045FA48B94AA3D3E9E9
:104620000023204629460BF05BFA00283FF4CBAE6E
:104630005E46DDE904AB1E9C2146404606F04CFB7D
:104640004946404606F048FB3946404606F044FBE2
:104650001499404606F040FB3146404606F03CFBCC
:1046600088E501230A937A1C1D927B78002B3FF486
:104670008DAC1746FFF7FEBB00230A93F3E7049BBC
:10468000012B03D10C9B002B00F020839FED307B8E
:10469000394C002325468DED0E7B1C4658E60CF167
:1046A000547ACDF814A086E6DDE90E010BF060FA2D
:1046B000012838BF01200AF009FF109BCDE90E0147
:1046C000002B40F0128101F1004316901793DDE9B1
:1046D000163425461C4651E6B3F59A7F40F30A810D
:1046E0001F4B0593002222230492DDE904ABC8F896
:1046F00000303FE518A3D3E900230BF0D3F90028DD
:104700003FF461AE94E71633FFF64DAD0C9A1B4BA8
:10471000ABEB020003EBC003D3E90023DDE90401A6
:104720000BF078F882468B4624E5002208929346E7
:104730000122079227E46E2C3FF406AD26E400BF69
:104740009535A094FFFFDF3F35E5AF350000E03F32
:10475000000000000000F03F9535A094FFFFCF3F20
:104760000000F07FE2FBFFFF0000F03F0000E03FB1
:10477000FFFF9F7CFFFFEF7F0000F0BF100C0408DD
:104780003FF429AD644214F00F020AD0BC4B03EB96
:10479000C203DDE90401D3E900230BF03BF8CDE9C6
:1047A000040124113FF417AD1F2C40DC14F010035A
:1047B0001946DDE9042318BF6A21DFF8E492079166
:1047C0004FF0000C14F0010F1046194607D0D9E93C
:1047D00000230AF0F5FE4FF0010C02460B46641070
:1047E00009F10809EED1BCF1000F01D0CDE9042395
:1047F000079B9BB1DDE90412C2F30A53C3F16B03BB
:10480000002B11460ADD1F2B40F32B820022342B94
:10481000049240F353824FF05C730593DDE9040189
:10482000002200230BF034F900283FF4D6AC2223F9
:10483000C8F800304FF0000A4FF0000B9AE4DDE9B1
:1048400020131F9A049102F2334223F4801343EAA7
:1048500002530593240742BF059B43F00043059391
:10486000DDE904AB86E40A9A02941EABCDE900327E
:104870001DA9844A1FAB404605F0C4FD10F0070592
:1048800004463FF473AC062D40F0A580069B01372B
:10489000002B3FF480AB1F604FF0000A4FF0000B7D
:1048A000FFF77DBB1D46082A7FF736AB102DDCBF16
:1048B00009EB890901EB49090023FFF732BB07998E
:1048C0005A46384607F0D6F9002800F0B180002398
:1048D0001D46089399461E46FFF789BB44F61F62A2
:1048E0009042A8BF10460C9012E49DED0E7B8DED1A
:1048F000167BECE6102B4FEA2314634B40F39381B5
:1049000019460793DDE904234FF0000C8A46E1467F
:1049100014F0010F104619464FEA640409F1010929
:1049200007D0DAE900230AF04BFE4FF0010C0246F3
:104930000B46012C0AF1080AEAD1BCF1000F01D0A4
:10494000CDE90423059B514CA3F154730593079BB8
:1049500003EBC909D9E90001DDE904230AF030FEBF
:10496000DFF840C101EA04036345CDE904010A46CA
:1049700000F2F98046498B4240F2EE80454B0593A8
:10498000002307934FF0FF33049326E442491DA808
:1049900005F0D0FF00283FF4F9AA1D9B3F49013BD9
:1049A0001DA81D9305F0C6FF10B91D9B01331D9373
:1049B00036480023CDE90430DDE904ABFFF7DABB6C
:1049C000324B0593149B04932223DDE904ABC8F812
:1049D0000030FFF7CFBB1E9A3AB1352120A806F070
:1049E000CDFD1E99404606F077F9013D042D3FF6B6
:1049F00031AF01A353F825F03F480008214A0008D1
:104A00001B4A00080D4A00083F4800084FF0FF33DA
:104A10006FF00045CDE904351CE71C4B059319E701
:104A2000209B0493219B059314E70023FFF766BAAC
:104A30001D9A13465A441D9213F80B4006468146B0
:104A4000FFF751BA0E4901EBC301D1E90001DDE9DD
:104A500004230AF0B5FD82468B46FFF78BBB9FED22
:104A6000047B8DED1A7B9FED047B8DED0E7B70E555
:104A7000000000000000E0BF000000000000E03F78
:104A8000100C0408400A0408000D04080000F07F20
:104A90000000907CFFFFEF7F5C2C0408602C040872
:104AA000680A04080000A07C08958346FFF73CBA1A
:104AB000914CC5F10F0504EBC501DDE90423D1E9F3
:104AC00000010AF07DFD0B9B5D1B04EBC504D4E9DE
:104AD00000230AF075FD82468B46FFF74BBB109909
:104AE000864A5E46C3F31303DDE908AB002944D0D0
:104AF000934200F0BE80159B002B00F08F800C9A33
:104B0000134210D0109B079ADDE90401002B00F03E
:104B10008E80FFF745F902460B46504659460AF08B
:104B200099FB82468B46079B1E9C002B3FF484AD6D
:104B3000734A0023CDE918325046DDE9182359465F
:104B40000AF03EFD03460B4308BF222382468B46F4
:104B500008BFC8F800306FE502F1547305930023D5
:104B60000793FFF73ABB0023049305942223DDE962
:104B700004ABC8F80030FFF7FDBA049A1343BAD16A
:104B8000079B002B40F0A4805E4B0C9A1A40134602
:104B9000A3F580136FEA13536FEA035305934FF0A5
:104BA000FF330493DDE904ABBDE7DDE90401109BAD
:104BB00003435E46DDE908ABB5D1C1F313030C91A5
:104BC000002BB0D121F000431B0D1B05B3F1D66FB4
:104BD000A9D9736913B93369012BA4DD31460122C8
:104BE000404606F079FA3946064606F0DDFA002816
:104BF00099DDC5E744491DA820AA05F0B3FE0528A4
:104C00007FF4AEAA219B43F0FF4343F4E0030593F6
:104C1000209B0493DDE904ABFFF7ACBA0E9B049A2A
:104C2000134280D06EE707934FF000098AE6FFF742
:104C3000B7F802460B46504659460AF009FB0022D7
:104C4000002382468B460AF023FF00283FF46BAF17
:104C500022231E9CC8F800304FF0000A4FF0000BD2
:104C6000EAE44FF0FF3202FA03F3049A1A40049286
:104C7000D4E5079B0499F3B1224B0C9A1340B3F18E
:104C8000D46F18D81B0DC3F16B034FF0FF3202FA3B
:104C900003F399427FF42FAF1C4B0C9A9A4224D015
:104CA000184B0C9A1A4002F58013059300230493C5
:104CB000DDE904AB37E74FF0FF33EAE7203B4FF085
:104CC000FF3202FA03F30B400593A7E55E46BFE708
:104CD0000C4B0C9A1A40B2F1D66F13463FF758AFFF
:104CE000B2F15C7FB4DD1E9C22E70131D8D1FFF721
:104CF000E0BB2A460546D6E5100C0408FFFF0F006E
:104D0000000050390000F07F540A0408FFFFEF7FD5
:104D1000014BFFF761B800BFD408040830B583B079
:104D20000D460446019215F0D9FB019B2A46214607
:104D300003B0BDE83040FFF74FB800BF10B582B0F8
:104D40000446019115F0CAFB019A034B214602B0BB
:104D5000BDE81040FFF740B8D4080408F0B52DEDC9
:104D6000028B83B00D460446019215F0B7FB2A462C
:104D70002146019BFFF730F855EC104B10EE102A3E
:104D800010EE100A2B4629460AF0B4FE80BB2046DE
:104D900029460AF00DFF08EE100ADFED1D7AB0EE8D
:104DA000C87AB4EE677AF1EE10FA11DD25F000470B
:104DB000184B204639464FF0FF320AF09BFE68B987
:104DC000144B204639464FF0FF320AF075FE28B9E1
:104DD000B0EE480A03B0BDEC028BF0BD15F07EFBCF
:104DE0002223B0EE480A036003B0BDEC028BF0BD95
:104DF000002D094804DA06F017FEB1EE408AE7E715
:104E000003B0BDEC028BBDE8F04006F00DBE00BF64
:104E1000FFFF7F7FFFFFEF7F9C240408F0B52DED9F
:104E2000028B83B00446019115F058FB2146019A8C
:104E3000264BFEF7D1FF55EC104B10EE102A10EE6A
:104E4000100A2B4629460AF055FE80BB204629460B
:104E50000AF0AEFE08EE100ADFED1D7AB0EEC87A59
:104E6000B4EE677AF1EE10FA11DD25F00047194B28
:104E7000204639464FF0FF320AF03CFE68B9154B28
:104E8000204639464FF0FF320AF016FE28B9B0EE40
:104E9000480A03B0BDEC028BF0BD15F01FFB2223C6
:104EA000B0EE480A036003B0BDEC028BF0BD002DEC
:104EB000094804DA06F0B8FDB1EE408AE7E703B02E
:104EC000BDEC028BBDE8F04006F0AEBDD40804088E
:104ED000FFFF7F7FFFFFEF7F9C2404082DE9F04751
:104EE0004B4D86468C4660461CF8014B2E5D16F0F5
:104EF0000806F8D12D2C57D02B2C0ABF9CF8005057
:104F0000254600F1020C5BB1102B53D04FF0FF3857
:104F1000B8FBF3F803FB08FA6FEA0A0A994607E0C0
:104F2000302D5BD00A23DFF8EC8099464FF0050A5C
:104F30000027384607E0404513D826D009FB00403B
:104F400001271CF8015BA5F13004092C05D9A5F156
:104F50004104192C08D8A5F13704A3420CDD002F19
:104F6000E9DA4FF0FF37ECE7A5F16104192C03D81B
:104F7000A5F15704A342F2DC002F0BDB06B140423F
:104F80000AB177B91160BDE8F0875445D6DD4FF01E
:104F9000FF37D6E72223CEF800304FF0FF30002A4B
:104FA000F1D00CF1FF31EDE79CF80050012600F143
:104FB000020CA8E7302D24D19CF8000000F0DF009F
:104FC000582818D14FF010099CF801504B464FF06B
:104FD0000F0A0CF1020C6FF07048A9E79CF8003042
:104FE00003F0DF03582BEDD0082399464FF0070A52
:104FF0006FF060489CE799466FF070484FF00F0AD9
:1050000096E74FF00F0A6FF07048994690E700BF9F
:10501000CD0704089999991960E700BF30B583B0AE
:105020000D460446019215F059FA019B2A46214685
:1050300003B0BDE8304051E730B583B00D460446BB
:10504000019215F04BFA019B2A46214603B0BDE8B8
:10505000304043E7F2B110B40A44441E002003E09C
:10506000914200F1010008D011F8013B04F8013F22
:10507000002BF5D15DF8044B70471378002BF9D065
:105080000130811A881812F8013F002BFAD15DF81F
:10509000044B70470B7810460A463BB10130411A69
:1050A000881812F8013F002BFAD17047704700BFF3
:1050B0002DE9F04F8A46B1F90C10ADF5317D8346EC
:1050C0008804099309D4DAF8783041F4005123F4C4
:1050D0000053AAF80C10CAF87830174617F8012BBD
:1050E0001392002A00F0E786DFF8A498039719F8D6
:1050F0000270002317F00807CDE90A330893984699
:10510000069340F0A380252A7DD1039802783E467D
:105110003C46A2F12503411C532B6ED8DFE813F067
:1051200072006D006D006D006D001C046D006D005F
:105130006D006D006D00BC00BC00BC00BC00BC007C
:10514000BC00BC00BC00BC00BC006D006D006D006C
:105150006D006D006D006D006D006D006D00B7039A
:10516000C7006D00C7006D006D006D006D00C803C5
:105170006D006D00D0036D006D006D006D006D0061
:105180006D006D006D0088036D006D00C0036D0043
:105190006D006D006D006D006D006D001704B903AA
:1051A000C700C700C700E603EE036D006D00F503FE
:1051B0006D0001041906D9036D006D00DC036D005C
:1051C000DF036D006D0088035146584607F012FE5C
:1051D000002800F069843346079D099E002B00F0EB
:1051E0002786069A002A00F0B386BAF80C3013F02E
:1051F000400F18BF4FF0FF32069206980DF5317D33
:10520000BDE8F08F0391DAF80430002B3DDDDAF8C9
:105210000030039A197812F8012C9142EDD1DAF896
:1052200004200133013ACAF8003008F10108CAF835
:105230000420039B13F8012B03931392002ADCD064
:1052400019F8027017F008073FF45DAFDAF8042090
:1052500012E0DAF800301A7819F8022012F0080F7C
:1052600003F10103E5D0DAF80420CAF80030013A6E
:1052700008F10108CAF80420002AEADC5146584621
:1052800007F0B8FD0028E4D0D3E75146584607F0B0
:10529000B1FD0028BBD0A4E716F08F0FADD104EB11
:1052A000840402EB4404303C4278084631E7039121
:1052B0000425DAF80430002B40F3C88272060FD5BB
:1052C0006B1E032B00F2B985DFE813F00901C6005D
:1052D000450124005146584607F08CFD002880D136
:1052E000DAF80020137819F803301B07E8D5DAF84C
:1052F0000430013B002B08F10108CAF8043002F128
:105300000102E7DDCAF80020137819F803301B0703
:10531000D6D5ECE7584605F059FC631E02680E929C
:10532000B3F5AE7F40F269836FF4AE72A3181093A9
:1053300040F25D140023049358AD11930F9307932B
:105340000D9353460C95DA4646F4F066BB461F466D
:1053500038680278A2F12B0CBCF14E0F50D8DFE870
:105360001CF0C0014F00C0014F004F0059027400F3
:10537000740074007400740074007400740074008D
:105380004F004F004F004F004F004F004F00B9013A
:105390004F004F004F003A0233024F004F00DE0132
:1053A0004F004F004F004F00C6014F004F004F000D
:1053B0004F004F00B2014F004F004F004F00AB01B4
:1053C0004F004F004F004F004F004F004F00B901FA
:1053D0004F004F004F003A0233024F004F00DE01F2
:1053E0004F004F004F004F00C6014F004F004F00CD
:1053F0004F004F00B2014F004F004F004F00AB0174
:105400000E9B93F800C0944514D1B30512D5079BA9
:105410000D9326F4207605F8012B013C7A68013AB9
:10542000002A08F101087A6040F3B4820130386044
:10543000002C8DD13B465F46D3469A46079B002BF6
:1054400000F07F8126F480767BE1049B13EB0B0F49
:10545000F0D126F4C076DEE7DAF800201378002CCD
:1054600019F8033008BF4FF0FF34F10703F00803C9
:1054700006F0100500F1CB82002D00F06C83002BAC
:105480007FF4D7AEDAF804300132013B012CCAE9CF
:10549000002308BF08F101083FF4CBAE01251A46EE
:1054A00013E0DAF800301A7819F80220160703F131
:1054B000010312D4DAF80420CAF800300135013AA9
:1054C000AC42CAF8042000F0D484002AE9DC51463A
:1054D000584607F08FFC0028E3D0A844A9E6002C2A
:1054E00008BF4FF0FF3406F01003F2070C9300F1F1
:1054F0007083DAF800200C99137818AFFB5C002950
:1055000000F0E482002B3FF478AEDAF80430013288
:10551000013B012CCAE9002318BF1A4611D1DCE770
:10552000DAF800301A78BA5C0133002AD5D0DAF8FC
:105530000420CAF800300135013AAC42CAF8042010
:10554000CBD0002AECDC5146584607F053FC00282B
:10555000E6D0A8446DE6631EB3F5AE7F40F24A8202
:105560006FF4AE72A318079340F25D14002758AD94
:105570005146C246B846089F0C9546F458660A68DC
:105580001078A0F12B034D2B5FD8DFE813F06E01EC
:105590005E006E015E005E00ED013D013D013D01DA
:1055A0003D013D013D013D01670167015E005E0077
:1055B0005E005E005E005E005E004E004E004E002B
:1055C0004E004E004E005E005E005E005E005E001B
:1055D0005E005E005E005E005E005E005E005E00DB
:1055E0005E005E005E005E0074015E005E005E00B4
:1055F0005E005E005E005E005E004E004E004E00EB
:105600004E004E004E005E005E005E005E005E00DA
:105610005E005E005E005E005E005E005E005E009A
:105620005E005E005E005E0074010A2F0DDD26F450
:10563000386605F8010B4B68013B002B4B6040F3CB
:10564000B48101320A60013C99D108974746D0469F
:105650008A46F10507D50C9B9D4200F2D9830C9B2D
:105660009D423FF4CAAD16F0100240F0AE81089B97
:105670000A9C0C992A705846A047099BB20603F170
:10568000040400F19C81730700F16E8316F001029F
:1056900040F09481B10740F19181BA4B0A99994247
:1056A0005846089B0C9900F06A8406F0DFFB099BC2
:1056B0001B68C3E9000184E1BBF1070F7FF4BAAEB8
:1056C0004FF0080BA7E6BBF1060F7FF4B3AE4FF027
:1056D000070BA0E6049B012B7FF4ACAE02230493DE
:1056E00099E631067FF5A6AE26F0800693E6049B88
:1056F000002B40F07881079B2BB906F4E06CBCF5D9
:10570000E06F00F0B983BBF1010F03D0BBF1040FD0
:105710007FF490AE0BF1010B5FFA8BFB7BE6BBF1E4
:10572000000F40F05781079B002B40F0698106F481
:10573000E06CBCF5E06F00F0A5833B465F46D346C6
:105740009A46049B013B012B40F2F3837B1E062B00
:1057500040F2C182F70513D5740500F1FE8315F8F8
:10576000011C652905F1FF3408F1FF3702D04529F6
:1057700040F0E5825246584607F0FEFAB846254604
:1057800016F010027FF455AD06F4C063B3F5806FD8
:105790002A7000F036830F9B002B40F0F4825846AD
:1057A0000C990022FFF7B4FA099BF0078DED040B6A
:1057B00003F1040440F1A6821B6883ED000B069BF5
:1057C00009940133069334E5BBF1020F7FF432AE46
:1057D0004FF0030B1FE606F4A06CBCF5806F05D0FC
:1057E00073057FF527AE079B002BA6D0B10504D427
:1057F000079B0D9911955B1A0F9326F4F066002311
:1058000046F4C076079306E65F4B26F4386633F914
:1058100017700EE7F3057FF518AE079B013307936A
:10582000109B26F08006002B40F09181013CF5E5AD
:1058300046F40076534B0A9310230893DAF80430A9
:105840000391002B4FF003053FF738AD5146584602
:1058500007F0D0FA00283FF431ADC2E44A4B33F9E7
:105860001770082F3FF7E3AEEFE633067FF5EDAE96
:1058700026F08006DDE606F4C063B3F5007F7FF412
:10588000E4AE26F4007646F4A0661027D1E646F092
:1058900001063E4B0A930A2303910893032508E56A
:1058A00018A806F07DF846F040060390012500E5B3
:1058B00033077FF4A2AC427846F00206084628E49B
:1058C000304B0A93082346F0010603910893032501
:1058D000EFE446F40876ADE703910225E9E4294BAD
:1058E0000A930A23039108930325E2E435077FF422
:1058F00084AC427846F0040608460AE4234B0A9337
:105900000023039108930325D3E432077FF475AC99
:1059100042786C2A00F0848246F001060846FFF7C0
:10592000F8BBF20600F10182099C730754F8040BDE
:1059300000F12382F70700F1C182B50740F1BE8272
:105940004246D317C0E900230994039171E446F05D
:10595000400603910025ACE434437FF44EAC42781A
:1059600010260846FFF7D5BB33057FF562AE17B9A1
:1059700046F400760827730540F1A38126F4B0664B
:1059800057E600BF19500008900A0408B5BF000888
:10599000CD0704083946504607F02CFA00287FF45A
:1059A00049AD002C7FF4D4AC44E55846049107F08F
:1059B00021FA049900283FF446AE46E6099B1B688D
:1059C0001860069B0994013306930C9BED1A2F4433
:1059D000B8442EE4BBF1030F3FF49CAEBBF1050FBE
:1059E0003FF498AE26E5049B022B7FF48CAE032394
:1059F000049310E500230793B8E50023109399E47E
:105A00003B4626F480765F46D3469A4699E6002DBB
:105A100040F08E81099E56F8042B0492002B40F032
:105A2000E78107950996FBF7F9FC0027B842254660
:105A30003FF4D7ABDAE9002312F8011B013BCAE9B6
:105A400000230B9B58A8032BC15507F1010616AC88
:105A500002D12368042B04D0082200212046FCF741
:105A60006FFA58AA049900943346584605F0B6F8E0
:105A7000421C0B903FF4B5AB002840F00982049A19
:105A8000106005F099F8002840F02A82B044013DEA
:105A9000079E002E40F03682049B04330493DAF80C
:105AA0000430002B7FF790ABDAF800301B7819F840
:105AB00003301F0700F1BA81002D00F0B781FBF71A
:105AC000ADFC3746B842B5D1FFF78BBB099951F809
:105AD000045B0491002B3FF490ABDAF80430511CC6
